:020000040000FA
:060000002AEF30F01200AF
:020006001200E6
:060008004EEF1BF0120098
:02000E00C250DE
:08001000020B01E0010E1200D9
:060018004EEF1BF0120088
:02001E000600DA
:10002000DC600000FD03000003000000CF60000062
:10003000F00300000D000000CC600000FD00000097
:1000400003000000CA6000007B0F000002000000F7
:10005000C8600000790F000002000000C6600000C8
:08006000770F00000200000010
:0800680000001200D9CFE6FFF1
:10007000E1CFD9FF82E949E800EBE6FFD6CFE6FF02
:1000800015EC28F041E9E750026E02504BE0020601
:10009000B9EC2DF0F9C065FFFAC066FFFBC067FF41
:1000A000FCC068FF0F016551036E6651046E675115
:1000B000056E6851066EB9EC2DF0F9C065FFFAC007
:1000C00066FFFBC067FFFCC068FF0F016551076E4C
:1000D0006651086E6751096E68510A6E07EB69FF39
:1000E00008EB6AFF09EB6BFF0AEB6CFFD950030FBB
:1000F000E96EDACFEAFFEE50695D656FEE506A593E
:10010000666FEE506B59676FEE506C59686FD88010
:100110003E0E6555000E6655000E6755000E68557B
:10012000CAE2B3D74AE9E7CFD9FF1200D9CFE6FF39
:10013000E1CFD9FF81E955E831EC14F0000902E183
:10014000A9EF05F0020157B53FEF06F0016B7351BF
:10015000040B01E0010E030BF36EFC0E0115F3100E
:10016000016F73510197080B01E001877351030B75
:10017000010802E1010E01D0000E019BE8B0018BE5
:100180007351019D800B01E0018D73AF08D07B514D
:10019000019FE8B0018F74C204F275C205F27CC2FF
:1001A00002F27DC203F27AC20AF279C209F25795CD
:1001B0007351030B010A01E1F2D3020A01E1BAD241
:1001C000030A02E0A4EF05F00A0E785D02E2A4EF54
:1001D00005F0020EEA6A7625E96E7751EA22EF50C1
:1001E0000A6E030EEA6A7625E96E7751EA22EF502D
:1001F0000B6E040EEA6A7625E96E7751EA22EF501B
:10020000106E050EEA6A7625E96E7751EA22EF5004
:10021000116E060EEA6A7625E96E7751EA22EF50F2
:100220000C6E070EEA6A7625E96E7751EA22EF50E6
:100230000D6E080EEA6A7625E96E7751EA22EF50D4
:100240000E6E090EEA6A7625E96E7751EA22EF50C2
:100250000F6E016B73510197080B01E0018701518B
:10026000030B000906E1101C01E0CCD0111C01E0D9
:10027000C9D052510E180BE153510F1808E15451D7
:100280000C1805E155510D1802E1A4EF05F0016AC3
:10029000040E015C3DE20150080DF3CFE9FFF4CFFD
:1002A000EAFF7E0EE926020EEA22030EE926000E80
:1002B000EA22EF502BE00150080DF3CFE9FFF4CF15
:1002C000EAFF7E0EE926020EEA220E50EE181EE12B
:1002D0000F50ED181BE10150080DF3CFE9FFF4CFEB
:1002E000EAFF7E0EE926020EEA22020EE926000E41
:1002F000EA22EFCF65FF0A0E0201EA6A7625E96E6F
:100300007751EA22EF500F01655D02E0012AC0D764
:10031000040E015C02E2A4EF05F0016A040E015C28
:1003200012E20150080DF3CFE9FFF4CFEAFF7E0E91
:10033000E926020EEA22030EE926000EEA22EF5019
:1003400002E0012AEBD7040E015C58E20150080DCF
:10035000F3CFE9FFF4CFEAFF7E0EE926020EEA2290
:100360000EEBEEFF0FEBEDFF0A0E0201EA6A7625B7
:10037000E96E7751EA22EF50E66E0150080DF3CF97
:10038000E9FFF4CFEAFF7E0EE926020EEA22020E12
:10039000E926000EEA22E552E750EF6E0150080D03
:1003A000F3CFE9FFF4CFEAFF7E0EE926020EEA2240
:1003B000030EE926000EEA22030EEF6EB9EC2DF0D3
:1003C000F9C065FFFAC066FFFBC067FFFCC068FFAD
:1003D0000150080DF3CFE9FFF4CFEAFF7E0EE926C6
:1003E000020EEA22040EE926000EEA22F9C0EEFF10
:1003F00066CFEEFF67CFEEFF68CFEEFF020101810F
:10040000019372D054510A1801E09ED355510B1834
:1004100001E09AD35251101801E096D353511118AC
:1004200001E092D3010EEA6A7625E96E7751EA225D
:10043000EF50040B59E0FAC382F30301020E836FFD
:100440000CEB84F30DEB85F30EEB86F30FEB87F3E8
:1004500054C288F355C289F352C28AF353C28BF354
:100460000A0E0201EA6A7625E96E7751EA22EFCF99
:100470008CF303018D6B300E8E6F02010D0E516FE8
:100480006C6B6C8B010E6F6F706F56510D0DF3CF4F
:10049000E9FFF4CFEAFF000EE926030EEA22020E7E
:1004A000E926000EEA22E9CF6DF2EACF6EF254C2DD
:1004B00071F255C272F251C2E6FF820EE66E030E71
:1004C000E66E6CC2E6FFE9CFE6FFEACFE6FF6FC259
:1004D000E6FF70C2E6FF54C2E6FF55C2E6FF74ECC9
:1004E00018F04AE9020101850B0EEA6A7625E96EE9
:1004F0007751EA22EF5001E0E7D00C0EEA6A762548
:10050000E96E7751EA22EF50300801E1C7D00C0EB6
:10051000EA6A7625E96E7751EA22EF50110A5CE02B
:10052000300A01E011D3579B016A080E015C14E206
:100530000D0E0124EA6A7625E96E7751EA22EF5022
:10054000E66E0150EA6A440FE96E020EEA22E552B5
:10055000E750EF6E012AE9D7150EEA6A7625E96EB3
:100560007751EA22EFCF4EF2160EEA6A7625E96E4F
:100570007751EA22EFCF4FF2170EEA6A7625E96E3D
:100580007751EA22EFCF4CF2180EEA6A7625E96E2F
:100590007751EA22EFCF4DF204EC09F0FF0801E0B9
:1005A000D3D2B3EC08F0FF0801E0CED202018D0EE9
:1005B000506F4CBF50910E504C190AE10F504D191D
:1005C00007E10C504E1904E10D504F1901E1508321
:1005D00061EC09F0016EB8D2126A080E125C14E2E6
:1005E0000D0E1224EA6A7625E96E7751EA22EF5061
:1005F000E66E1250EA6A440FE96E020EEA22E552F4
:10060000E750EF6E122AE9D78D0E506F150EEA6A89
:100610007625E96E7751EA22EF50800B01E0509188
:10062000150EEA6A7625E96E7751EA22EFCF4CF291
:10063000160EEA6A7625E96E7751EA22EFCF4DF27F
:1006400054C24EF255C24FF2B3EC08F002015D6F96
:10065000FF0E5D5D13E05D510D0DF3CFE9FFF4CFAB
:10066000EAFF000EE926030EEA220C0EE926000E30
:10067000EA22EFCF50F25085508704D08D0E506F94
:100680004CBF509161EC09F002015D6FFF0E5D5DA2
:1006900002E25C8101D05C915C9356D20A0EEA6A58
:1006A0007625E96E7751EA22EF500301FB5D01E008
:1006B0004BD2020159510E1801E046D25A510F187F
:1006C00001E042D2579740D20B0E785D086F0B0EB7
:1006D0007625066F000E7721076F0CEB02F20DEB0B
:1006E00003F2080EEA6A7625E96E7751EA22EF50A6
:1006F000FF0812E1090EEA6A7625E96E7751EA22CF
:10070000EF50FF0809E17B51019FE8B0018F74C2EF
:1007100004F275C205F207D0018F080E7625046F2A
:10072000000E7721056F018D0851000801E30CD2FE
:1007300057850AD2136A040E1324EA6A7625E96EF5
:100740007751EA22EF504D0801E0FED157A1FCD1CC
:100750007CC24EF27DC24FF274C2E9FF75C2EAFF5D
:10076000EFCF4CF2010EEA6A7425E96E7551EA2268
:10077000EFCF4DF21350EA6A7625E96E7751EA22FF
:10078000EF50FF0801E0E0D11328EA6A7625E96E10
:100790007751EA22EF50146E040E0B5D01E3D4D1C1
:1007A000D950140FE96EDACFEAFFEF50300BE84270
:1007B000E842E842E842010801E2C6D10B510E0DC1
:1007C000F3CFE9FFF4CFEAFF0C0EE926020EEA228E
:1007D000F8C3EFFF0B510E0DF3CFE9FFF4CFEAFFA3
:1007E0000C0EE926020EEA220B0EE926000EEA2282
:1007F00009C2EFFF0B510E0DF3CFE9FFF4CFEAFF73
:100800000C0EE926020EEA220C0EE926000EEA2260
:100810000AC2EFFF0B510E0DF3CFE9FFF4CFEAFF51
:100820000C0EE926020EEA22090EE926000EEA2243
:100830004EC2EEFF4FC2EDFF0B510E0DF3CFE9FF9D
:10084000F4CFEAFF0C0EE926020EEA220D0EE9268D
:10085000000EEA22EF6A0B510E0DF3CFE9FFF4CF41
:10086000EAFF0C0EE926020EEA220D0EE926000E22
:10087000EA22EF8CD950140FE96EDACFEAFFEF507D
:10088000060BE8420F01656F02010B510E0DF3CF0D
:10089000E9FFF4CFEAFF0C0EE926020EEA220D0E64
:1008A000E926000EEA220F016551030BF36EFC0EE0
:1008B000EF14F310EF6ED950140FE96EDACFEAFFA0
:1008C000EF50080B10E002010B510E0DF3CFE9FFC2
:1008D000F4CFEAFF0C0EE926020EEA220D0EE926FD
:1008E000000EEA22EF86D950140FE96EDACFEAFF44
:1008F000EF50300BE842E842E842E842010810E3DA
:1009000002010B510E0DF3CFE9FFF4CFEAFF0C0EFD
:10091000E926020EEA220D0EE926000EEA22EF8AEF
:1009200004C2E9FF05C2EAFFEF50E66E02010B5177
:100930000E0DF3CFE9FFF4CFEAFF0C0EE926020E0D
:10094000EA22EE52E552E750EF6E010EEA6A042504
:10095000E96E0551EA22EF50E66E0B510E0DF3CF12
:10096000E9FFF4CFEAFF0C0EE926020EEA22EE526E
:10097000E92A000EEA22E552E750EF6E0B510E0D08
:10098000F3CFE9FFF4CFEAFF0C0EE926020EEA22CC
:100990000D0EE926000EEA22EF8E0B2BD5D076C283
:1009A000E9FF77C2EAFFEF50030A63E0010A01E0C2
:1009B000CBD0030EEA6A7625E96E7751EA22EF5032
:1009C00047E1010EEA6A7625E96E7751EA22EFCF18
:1009D00052F2020EEA6A7625E96E7751EA22EFCFEB
:1009E00053F2540EE66E020EE66E520EE66E020EE4
:1009F000E66EE3EC1AF044E902015783BF0E506F34
:100A0000016A080E015C13E20150EA6A7425E96E7E
:100A10007551EA22EF50E66E0150EA6A440FE96E22
:100A2000020EEA22E552E750EF6E012AEAD7525150
:100A300003E14C6B4D6B03D053C24DF24C6B54C26F
:100A40004EF255C24FF261EC09F00201566F7CD0B4
:100A50005669546955694C694D69540EE66E020E2B
:100A6000E66E4C0EE66E020EE66EE3EC1AF044E91A
:100A70006BD07B5114E074C2E9FF75C2EAFFEFCF7F
:100A80004CF2010EEA6A7425E96E7551EA22EFCF45
:100A90004DF269DB156EFF0E155C1DE155D0016A44
:100AA000080E015C13E20150EA6A7425E96E755183
:100AB000EA22EF50E66E0150EA6A440FE96E020E38
:100AC000EA22E552E750EF6E012AEAD79DDB156E68
:100AD000FF0E155C39E015500D0DF3CFE9FFF4CF93
:100AE000EAFF000EE926030EEA220C0EE926000EAC
:100AF000EA22EF50200B28E0016A0A0E015C11E2A5
:100B000001500D0DF3CFE9FFF4CFEAFF000EE92607
:100B1000030EEA220C0EE926000EEA22EF6A012AF1
:100B2000ECD7020156695269536954695569540EEC
:100B3000E66E020EE66E520EE66E020EE66EE3EC16
:100B40001AF044E902015793020157B502D064EC50
:100B500018F0B9EC2DF0F9C065FFFAC066FFFBC0D4
:100B600067FFFCC068FF0F016551026E6651036E9E
:100B70006751046E6851056E016A040E015C4FE214
:100B80000150080DF3CFE9FFF4CFEAFF7E0EE9260E
:100B9000020EEA22030EE926000EEA22EF500008B8
:100BA0003CE202EB69FF03EB6AFF04EB6BFF05EB32
:100BB0006CFF0150080DF3CFE9FFF4CFEAFF7E0E82
:100BC000E926020EEA22040EE926000EEA22EE5081
:100BD0000F01695D656FEE506A59666FEE506B5993
:100BE000676FEE506C59686FD880240E6555F40E0F
:100BF0006655000E6755000E68550FE20150080D4E
:100C0000F3CFE9FFF4CFEAFF7E0EE926020EEA22D7
:100C1000030EE926000EEA22EF6A012AAED702018E
:100C20005CA32DD05CB12BD0D950020FE96EDACF86
:100C3000EAFF6851EE5C0F01656F02016951EE58E1
:100C40000F01666F02016A51EE580F01676F0201D2
:100C50006B51EE580F01686F6551066E6651076E55
:100C60006751086E6851096E06506C08DC0E075417
:100C7000020E0854000E095402E202015C9356E988
:100C8000E7CFD9FF1200D9CFE6FFE1CFD9FF87E93F
:100C900002016C6B0150030BF36EFC0E6C15F3102C
:100CA0006C6F0250031001E16C856C51040B02E083
:100CB000000E01D0010E6C9BE8B06C8B6C8F02EBC8
:100CC0006DF203EB6EF2080E0014000803E2010E51
:100CD0006F6F01D06F6B040E0014000803E2010E69
:100CE000706F01D0706B04EBE9FF05EBEAFFEFCF0B
:100CF00071F20428E96E000E0520EA6EEFCF72F261
:100D000051C2E6FF820EE66E030EE66E6CC2E6FF8F
:100D10006DC2E6FF6EC2E6FF6FC2E6FF70C2E6FF7D
:100D200071C2E6FF72C2E6FF74EC18F04AE941E9CD
:100D3000E7CFD9FF1200D9CFE6FFE1CFD9FF81E994
:100D400041E8016A0A0E015C15E201500D0DF3CF76
:100D5000E9FFF4CFEAFF000EE926030EEA220C0EAB
:100D6000E926000EEA22EF50800B02E1015003D089
:100D7000012AE8D7FF0E42E9E7CFD9FF1200D9CF09
:100D8000E6FFE1CFD9FF82E942E8FF0E005C06E111
:100D9000026A080E025C02E2022AFBD7FF0E005C28
:100DA0005FE1026A0A0E025C01E3B2D002500D0D4F
:100DB000F3CFE9FFF4CFEAFF000EE926030EEA22A3
:100DC0000C0EE926000EEA22EF50800B47E002509D
:100DD0000D0DF3CFE9FFF4CFEAFF000EE926030E75
:100DE000EA220C0EE926000EEA22EF50010B025017
:100DF0000D0DF3CFE9FFF4CFEAFF000EE926030E55
:100E0000EA220C0EE926000EEA22EF50020B0250F5
:100E10000D0DF3CFE9FFF4CFEAFF000EE926030E34
:100E2000EA220C0EE926000EEA22EF50080B0250CF
:100E30000D0DF3CFE9FFF4CFEAFF000EE926030E14
:100E4000EA220C0EE926000EEA22EF50040B06E01F
:100E5000036A080E035C02E2032AFBD7022AA2D728
:100E600000500D0DF3CFE9FFF4CFEAFF000EE926A5
:100E7000030EEA220C0EE926000EEA22EF50800B48
:100E800047E000500D0DF3CFE9FFF4CFEAFF000E6D
:100E9000E926030EEA220C0EE926000EEA22EF50A4
:100EA000010B00500D0DF3CFE9FFF4CFEAFF000E68
:100EB000E926030EEA220C0EE926000EEA22EF5084
:100EC000020B00500D0DF3CFE9FFF4CFEAFF000E47
:100ED000E926030EEA220C0EE926000EEA22EF5064
:100EE000080B00500D0DF3CFE9FFF4CFEAFF000E21
:100EF000E926030EEA220C0EE926000EEA22EF5044
:100F0000040B06E0036A080E035C02E2032AFBD727
:100F100043E9E7CFD9FF1200D9CFE6FFE1CFD9FFF0
:100F200081E941E80201578B57A3CAD0516B515157
:100F3000512BEA6A820FE96E030EEA22FAC3EFFF31
:100F40005151512BEA6A820FE96E030EEA22060E16
:100F5000EF6E5151512BEA6A820FE96E030EEA22BD
:100F6000EF685151512BEA6A820FE96E030EEA22B3
:100F7000EF685151512BEA6A820FE96E030EEA22A3
:100F8000EF685151512BEA6A820FE96E030EEA2293
:100F9000EF685151512BEA6A820FE96E030EEA2283
:100FA00054C2EFFF5151512BEA6A820FE96E030ED2
:100FB000EA2255C2EFFF5151512BEA6A820FE96EC6
:100FC000030EEA2252C2EFFF5151512BEA6A820FFF
:100FD000E96E030EEA2253C2EFFF5B515B2BE66E14
:100FE0005151512BEA6A820FE96E030EEA22E55253
:100FF000E750EF6E5151512BEA6A820FE96E030EF2
:10100000EA22EF6A5151512BEA6A820FE96E030E10
:10101000EA22200EEF6E016A080E015C14E2015014
:10102000EA6A440FE96E020EEA22EF50E66E515171
:10103000512BEA6A820FE96E030EEA22E552E7506D
:10104000EF6E012AE9D76C6B6C8B6C8F56510D0DCE
:10105000F3CFE9FFF4CFEAFF000EE926030EEA2200
:10106000020EE926000EEA22E9CF6DF2EACF6EF217
:1010700056510D0DF3CFE9FFF4CFEAFF000EE9263C
:10108000030EEA22EECF71F2EDCF72F2010E6F6F16
:10109000706F51C2E6FF820EE66E030EE66E6CC202
:1010A000E6FF6DC2E6FF6EC2E6FF6FC2E6FF70C2EA
:1010B000E6FF71C2E6FF72C2E6FF74EC18F04AE97F
:1010C00042E9E7CFD9FF1200D9CFE6FFE1CFD9FF40
:1010D00081E941E802015C91B9EC2DF0F9C068F2B8
:1010E000FAC069F2FBC06AF2FCC06BF202014C6B01
:1010F0004D6B0B0E516F5151512BEA6A820FE96E05
:10110000030EEA22EF6A5151512BEA6A820FE96E0F
:10111000030EEA22100EEF6E016A080E015C14E263
:101120000150EA6AF00FE96E030EEA22EF50E66E14
:101130005151512BEA6A820FE96E030EEA22E55201
:10114000E750EF6E012AE9D7E66AE66A4C0EE66ED2
:10115000020EE66EEAEC0EF044E902015C8342E91D
:10116000E7CFD9FF1200D9CFE6FFE1CFD9FF81E960
:1011700041E8016A0A0E015C42E201500D0DF3CF15
:10118000E9FFF4CFEAFF000EE926030EEA220C0E77
:10119000E926000EEA22EF50800B2FE001500D0DE2
:1011A000F3CFE9FFF4CFEAFF000EE926030EEA22AF
:1011B0000C0EE926000EEA22EF50080B1EE001504B
:1011C0000D0DF3CFE9FFF4CFEAFF000EE926030E81
:1011D000EA22020EE926000EEA22EECF65FFEFCFEB
:1011E00066FF02014C510F01651907E102014D51E3
:1011F0000F01661902E1015003D0012ABBD7FF0E8F
:1012000042E9E7CFD9FF1200D9CFE6FFE1CFD9FFFE
:1012100081E942E8016A0A0E015C4EE201500D0DBF
:10122000F3CFE9FFF4CFEAFF000EE926030EEA222E
:101230000C0EE926000EEA22EF50800B3BE0015035
:101240000D0DF3CFE9FFF4CFEAFF000EE926030E00
:10125000EA220C0EE926000EEA22EF50040B2AE0E7
:10126000026A080E025C24E201500D0DF3CFE9FF83
:10127000F4CFEAFF000EE926030EEA22040EE92667
:10128000000EEA22EACF67FF02500F01EA6AE92462
:10129000E96E6751EA22EFCF65FF0250EA6A440F18
:1012A000E96E020EEA22EF50655D04E1022AD9D709
:1012B000015003D0012AAFD7FF0E43E9E7CFD9FF92
:1012C0001200D9CFE6FFE1CFD9FF81E942E80168FA
:1012D000020150A502D098DF03D050A702D043DF0F
:1012E000016EFF0E015C02E126DD016EFF0E015C66
:1012F0005EE001500D0DF3CFE9FFF4CFEAFF000EE1
:10130000E926030EEA220C0EE926000EEA2250C25C
:10131000EFFF020150A528D0026A080E025C24E209
:101320000250EA6A440FE96E020EEA22EF50E66EBE
:1013300001500D0DF3CFE9FFF4CFEAFF000EE926CF
:10134000030EEA22040EE926000EEA22EACF66FF27
:1013500002500F01EA6AE924E96E6651EA22E55279
:10136000E750EF6E022AD9D7020150A712D00150E0
:101370000D0DF3CFE9FFF4CFEAFF000EE926030ECF
:10138000EA22020EE926000EEA224CC2EEFF4DC20E
:10139000EDFF01500D0DF3CFE9FFF4CFEAFF000E92
:1013A000E926030EEA224EC2EEFF4FC2EDFF0150C6
:1013B00043E9E7CFD9FF1200D9CFE6FFE1CFD9FF4C
:1013C00085E941E8056A080E055C16E2055002242D
:1013D000E96E000E0320EA6EEFCF65FF0550002492
:1013E000E96E000E0120EA6EEF500F01655D02E02C
:1013F000000E03D0052AE7D7010E42E9E7CFD9FF57
:101400001200D9CFE6FFE1CFD9FF82E944E802011B
:1014100052695369546B556B056A0A0E055C11E2FB
:1014200005500D0DF3CFE9FFF4CFEAFF000EE926DA
:10143000030EEA220C0EE926000EEA22EF6A052AC4
:10144000ECD70201576B586B5C6B006BAFEC2DF067
:101450000201516B026A02960298029A028C028281
:1014600000500294E8B00284F00E036E030E046E86
:1014700002EBE6FF03EBE6FF04EBE6FF23EC1BF0D9
:1014800043E9540EE66E020EE66E520EE66E020E52
:10149000E66EE3EC1AF044E9F8C3E6FF19D841E937
:1014A000020100810301F9510201030BF36EF346BF
:1014B000F346F346F346CF0E0015F310006FD6CF78
:1014C0005BF2F292F288010E45E9E7CFD9FF1200F4
:1014D000D9CFE6FFE1CFD9FF82E9E66A00EBE6FF6C
:1014E00071EC1AF042E9000904E000EBF8F3010E98
:1014F00001D0000E41E9E7CFD9FF1200D9CFE6FFB6
:10150000E1CFD9FF82E9005003080FE300EBF9F3C4
:101510000301F9510201030BF36EF346F346F34660
:10152000F346CF0E0015F310006F41E9E7CFD9FF66
:101530001200D9CFE6FFE1CFD9FF86E94EE8010ED0
:10154000076E086A096A0A6A0301F8510B6E066A97
:10155000040E065C0DE206500E0DF3CFE9FFF4CF4A
:10156000EAFF0C0EE926020EEA22EF68062AF0D7FF
:1015700002010B6B5781066A200E065C01E3B1D0B5
:1015800001EB66FF02EB67FF03EB68FF0F01656B82
:10159000F80E6617070E681707EB69FF08EB6AFF7E
:1015A00009EB6BFF0AEB6CFF06501F0B08E00F0105
:1015B000D89069376A376B376C37E806F9E10F0165
:1015C000695165176A5166176B5167176C51681737
:1015D000655166116711681101E181D006EBE6FFE4
:1015E00077DF41E90201516B5151512BEA6A820FB9
:1015F000E96E030EEA22070EEF6E5151512BEA6A93
:10160000820FE96E030EEA22F8C3EFFF4E694F69BD
:10161000E66A010EE66E000EE66EE66A4E0EE66EB5
:10162000020EE66E43EC06F046E9B9EC2DF0F9C087
:1016300065FFFAC066FFFBC067FFFCC068FF0F01D3
:1016400065510C6E66510D6E67510E6E68510F6ECE
:1016500051DA000901E056DAB9EC2DF0F9C065FF66
:10166000FAC066FFFBC067FFFCC068FF0F01655151
:10167000106E6651116E6751126E6851136E10EB49
:1016800069FF11EB6AFF12EB6BFF13EB6CFFD95094
:101690000C0FE96EDACFEAFFEE50695D656FEE5030
:1016A0006A59666FEE506B59676FEE506C59686FF0
:1016B0000450040DF3CFF6FFF4CFF7FF420EF626E9
:1016C0005E0EF72265510900F55C66510900F55878
:1016D00067510900F55868510900F558B9E2062A22
:1016E0004BD70BEBE6FFF4DE41E9020157910B51BA
:1016F0004FE9E7CFD9FF1200D9CFE6FFE1CFD9FFFD
:1017000083E94AE8030E036E00040DE1DDDC02010B
:101710005CA305D0EFD90009FAE0F4D9F8D75CA1B1
:10172000E0D15D51E3D1005001E0DFD1FF0E015C5B
:1017300024E10F01010E656F666B676B686B030137
:10174000F8511F0B08E00F01D890653766376737EF
:101750006837E806F9E165CFE6FF66CFE6FF67CFB9
:10176000E6FF68CFE6FF0A0EE66EE3DE45E9000914
:1017700003E10306DEE1B5D1016A01500E0DF3CF9E
:10178000E9FFF4CFEAFF0C0EE926020EEA22090E69
:10179000E926000EEA22EECF4EF2EDCF4FF20150D5
:1017A0000E0DF3CFE9FFF4CFEAFF0C0EE926020E8F
:1017B000EA22EE52EFCF4CF201500E0DF3CFE9FFCB
:1017C000F4CFEAFF0C0EE926020EEA22EE52E92AD5
:1017D000000EEA22EFCF4DF2C6DC0201566FFF0E7B
:1017E000565D07E19BEC06F00201566FFF0801E130
:1017F00078D156510D0DF3CFE9FFF4CFEAFF000E7B
:10180000E926030EEA220C0EE926000EEA22EF6A10
:1018100001500E0DF3CFE9FFF4CFEAFF0C0EE926DD
:10182000020EEA22090EE926000EEA22EECF65FF3B
:10183000EFCF66FF56510D0DF3CFE9FFF4CFEAFF6E
:10184000000EE926030EEA2265CFEEFF66CFEDFF1C
:1018500001500E0DF3CFE9FFF4CFEAFF0C0EE9269D
:10186000020EEA22EE52EF50E66E56510D0DF3CF06
:10187000E9FFF4CFEAFF000EE926030EEA22020E8A
:10188000E926000EEA22E552E750EF6E01500E0DF8
:10189000F3CFE9FFF4CFEAFF0C0EE926020EEA22AD
:1018A000EE52E92A000EEA22EF50E66E56510D0D77
:1018B000F3CFE9FFF4CFEAFF000EE926030EEA2298
:1018C000020EE926000EEA22E92AEA22E552E75052
:1018D000EF6E56510D0DF3CFE9FFF4CFEAFF000E86
:1018E000E926030EEA220C0EE926000EEA22EF8614
:1018F00056510D0DF3CFE9FFF4CFEAFF000EE926B4
:10190000030EEA220C0EE926000EEA22EF8256515F
:101910000D0DF3CFE9FFF4CFEAFF000EE926030E29
:10192000EA220C0EE926000EEA22EF8A56510D0D2E
:10193000F3CFE9FFF4CFEAFF000EE926030EEA2217
:101940000C0EE926000EEA22EF8001500E0DF3CFB7
:10195000E9FFF4CFEAFF0C0EE926020EEA22EFCFF0
:10196000E6FFB6DD41E9020156510D0DF3CFE9FF67
:10197000F4CFEAFF000EE926030EEA22EECF54F27E
:10198000EDCF55F24C694D69540EE66E020EE66ECF
:101990004C0EE66E020EE66EE3EC1AF044E902012C
:1019A000516B5151512BEA6A820FE96E030EEA2204
:1019B000010EEF6E5151512BEA6A820FE96E030E50
:1019C000EA2200C2EFFF080EE66E010EE66E5651E7
:1019D0000D0DF3CFE9FFF4CFEAFF000EE926030E69
:1019E000EA22020EE926000EEA22E9CF65FFEACFDD
:1019F00066FFE9CFE6FFEACFE6FF56510D0DF3CFC4
:101A0000E9FFF4CFEAFF000EE926030EEA22E9CF50
:101A100067FFEACF68FFE9CFE6FFEACFE6FF43ECD6
:101A200006F046E9B9EC2DF0F9C065FFFAC066FF93
:101A3000FBC067FFFCC068FF0F016551056E665172
:101A4000066E6751076E6851086E020156510D0D02
:101A5000F3CFE9FFF4CFEAFF000EE926030EEA22F6
:101A60000C0EE926000EEA22EF50100B3CE142D8A2
:101A7000000901E047D8B9EC2DF0F9C065FFFAC0C4
:101A800066FFFBC067FFFCC068FF0F016551096E70
:101A900066510A6E67510B6E68510C6E09EB69FF57
:101AA0000AEB6AFF0BEB6BFF0CEB6CFFD950050FD9
:101AB000E96EDACFEAFFEE50695D656FEE506A5964
:101AC000666FEE506B59676FEE506C59686FD88037
:101AD000240E6555F40E6655000E6755000E6855C8
:101AE000B4E2FF0E03D0565101D0FF0E4BE9E7CF11
:101AF000D9FF120096EC00F002015751040B01E0EF
:101B0000010E12000201579564EF18F0D9CFE6FFDD
:101B1000E1CFD9FF82E9FAC382F30301020E836F9A
:101B200054C284F355C285F38669876954C288F329
:101B300055C289F352C28AF353C28BF302015B513F
:101B40005B2B03018C6F02016C6B6C8500506C97F2
:101B5000E8B06C87010E706F54C271F255C272F218
:101B600051C2E6FF820EE66E030EE66E6CC2E6FF21
:101B70006DC2E6FF6EC2E6FF6FC2E6FF70C2E6FF0F
:101B800054C2E6FF55C2E6FF74EC18F04AE941E999
:101B9000E7CFD9FF1200D9CFE6FFE1CFD9FF83E924
:101BA00049E801500D0DF3CFE9FFF4CFEAFF000E35
:101BB000E926030EEA220C0EE926000EEA22EF5077
:101BC000800B01E100D10301FC511CE003018D51A8
:101BD00019E0020157875BC2FBF301500D0DF3CFF3
:101BE000E9FFF4CFEAFF000EE926030EEA22020E17
:101BF000E926000EEA22EECF59F2EDCF5AF2060E98
:101C0000036E04D0020E036E02015797FAC382F3EB
:101C100003EB83F301500D0DF3CFE9FFF4CFEAFF9F
:101C2000000EE926030EEA22EFCF84F301500D0DDA
:101C3000F3CFE9FFF4CFEAFF000EE926030EEA2214
:101C4000E92A000EEA22EFCF85F301500D0DF3CF04
:101C5000E9FFF4CFEAFF000EE926030EEA22020EA6
:101C6000E926000EEA22EFCF86F301500D0DF3CFE7
:101C7000E9FFF4CFEAFF000EE926030EEA22020E86
:101C8000E926000EEA22E92AEA22EFCF87F354C2BE
:101C900088F355C289F352C28AF353C28BF35B5166
:101CA0005B2B03018C6F02016C6B6C8B00506C978B
:101CB000E8B06C87010E6F6F706F56510D0DF3CF4A
:101CC000E9FFF4CFEAFF000EE926030EEA22020E36
:101CD000E926000EEA22E9CF6DF2EACF6EF254C295
:101CE00071F255C272F251C2E6FF820EE66E030E29
:101CF000E66E6CC2E6FFE9CFE6FFEACFE6FF6FC211
:101D0000E6FF70C2E6FF54C2E6FF55C2E6FF74EC80
:101D100018F04AE9000955E0020157A756D0B9EC7E
:101D20002DF0F9C065FFFAC066FFFBC067FFFCC07D
:101D300068FF0F016551046E6651056E6751066EAE
:101D40006851076ED7DE000901E0DCDE020157B7FB
:101D500002D0010E3BD0B9EC2DF0F9C065FFFAC0FE
:101D600066FFFBC067FFFCC068FF0F016551086E8E
:101D70006651096E67510A6E68510B6E08EB69FF78
:101D800009EB6AFF0AEB6BFF0BEB6CFFD950040FFA
:101D9000E96EDACFEAFFEE50695D656FEE506A5981
:101DA000666FEE506B59676FEE506C59686FD88054
:101DB000240E6555F40E6655000E6755000E6855E5
:101DC000C1E202015797000E01D0010E4AE9E7CFA8
:101DD000D9FF1200D9CFE6FFE1CFD9FF85E953E85B
:101DE0000301FC510AE003018D5107E0020157870E
:101DF0005BC2FBF3060E076E04D0020E076E0201F3
:101E00005797015001E16BD1066A080E065C13E298
:101E100006500224E96E000E0320EA6EEF50E66ED3
:101E20000650EA6A440FE96E020EEA22E552E750D4
:101E3000EF6E062AEAD704EC09F0056EFF0E055C8A
:101E400041E1FAC382F30301020E836F846985695D
:101E50008669876954C288F355C289F352C28AF3EE
:101E600053C28BF302015B515B2B03018C6F0201A8
:101E70006C6B6C8B00506C97E8B06C8702EB6DF26A
:101E800003EB6EF26F6B010E706F54C271F255C2AC
:101E900072F2579751C2E6FF820EE66E030EE66EAF
:101EA0006CC2E6FF6DC2E6FF6EC2E6FF6FC2E6FFE0
:101EB00070C2E6FF54C2E6FF55C2E6FF74EC18F0AC
:101EC0004AE9DAD105500D0DF3CFE9FFF4CFEAFF6F
:101ED000000EE926030EEA220C0EE926000EEA2285
:101EE000EF50080BAEE00301FC5112E005500D0D60
:101EF000F3CFE9FFF4CFEAFF000EE926030EEA2252
:101F0000020EE926000EEA22EECF59F2EDCF5AF288
:101F10000301040E826F07EB83F305500D0DF3CF21
:101F2000E9FFF4CFEAFF000EE926030EEA22EFCF25
:101F300084F305500D0DF3CFE9FFF4CFEAFF000E57
:101F4000E926030EEA22E92A000EEA22EFCF85F302
:101F500005500D0DF3CFE9FFF4CFEAFF000EE9269F
:101F6000030EEA22020EE926000EEA22EFCF86F3E4
:101F700005500D0DF3CFE9FFF4CFEAFF000EE9267F
:101F8000030EEA22020EE926000EEA22E92AEA22DC
:101F9000EFCF87F354C288F355C289F352C28AF354
:101FA00053C28BF302015B515B2B03018C6F020167
:101FB0006C6B6C8B00506C97E8B06C8756510D0DB4
:101FC000F3CFE9FFF4CFEAFF000EE926030EEA2281
:101FD000EECF71F2EDCF72F2010E6F6F706F56514E
:101FE0000D0DF3CFE9FFF4CFEAFF000EE926030E53
:101FF000EA22020EE926000EEA22E9CF6DF2EACFCC
:102000006EF251C2E6FF820EE66E030EE66E6CC201
:10201000E6FFE9CFE6FFEACFE6FF6FC2E6FF70C258
:10202000E6FF71C2E6FF72C2E6FF74EC18F04AE9FF
:10203000000901E11CD1020157A7E1D0B9EC2DF054
:10204000F9C065FFFAC066FFFBC067FFFCC068FF10
:102050000F016551086E6651096E67510A6E68512D
:102060000B6E48DD000901E04DDD020157A7C7D026
:10207000B9EC2DF0F9C065FFFAC066FFFBC067FF41
:10208000FCC068FF0F0165510C6E66510D6E675103
:102090000E6E68510F6E0CEB69FF0DEB6AFF0EEBD5
:1020A0006BFF0FEB6CFFD950080FE96EDACFEAFF38
:1020B000EE50695D656FEE506A59666FEE506B5970
:1020C000676FEE506C59686FD880240E6555F40E1A
:1020D0006655000E6755000E6855C3E2C8D003016F
:1020E000040E826F07EB83F354C284F355C285F369
:1020F00002EBE9FF03EBEAFFEFCF86F30228E96E7C
:10210000000E0320EA6EEFCF87F354C288F355C266
:1021100089F352C28AF353C28BF302015B515B2BEA
:1021200003018C6F02EBE9FF03EBEAFFEFCF59F2FB
:102130000228E96E000E0320EA6EEFCF5AF2020188
:102140006C6B6C8B00506C97E8B06C8756510D0D22
:10215000F3CFE9FFF4CFEAFF000EE926030EEA22EF
:10216000EECF71F2EDCF72F2010E6F6F706F5651BC
:102170000D0DF3CFE9FFF4CFEAFF000EE926030EC1
:10218000EA22020EE926000EEA22E9CF6DF2EACF3A
:102190006EF251C2E6FF820EE66E030EE66E6CC270
:1021A000E6FFE9CFE6FFEACFE6FF6FC2E6FF70C2C7
:1021B000E6FF71C2E6FF72C2E6FF74EC18F04AE96E
:1021C000000955E0020157A756D0B9EC2DF0F9C02F
:1021D00065FFFAC066FFFBC067FFFCC068FF0F0128
:1021E0006551106E6651116E6751126E6851136E13
:1021F00081DC000901E086DC020157B702D0010E44
:102200003BD0B9EC2DF0F9C065FFFAC066FFFBC00A
:1022100067FFFCC068FF0F016551146E6651156EB3
:102220006751166E6851176E14EB69FF15EB6AFF64
:1022300016EB6BFF17EB6CFFD950100FE96EDACF7E
:10224000EAFFEE50695D656FEE506A59666FEE50B9
:102250006B59676FEE506C59686FD880240E6555C6
:10226000F40E6655000E6755000E6855C1E2020176
:102270005797000E01D0010E54E9E7CFD9FF1200A5
:10228000D9CFE6FFE1CFD9FF87E90550020A02E086
:10229000030A02E1000E01D0000E41E9E7CFD9FFA9
:1022A0001200D9CFE6FFE1CFD9FF82E943E8FF0E64
:1022B000005C01E08CD0026A0A0E025C01E318D1D6
:1022C00002500D0DF3CFE9FFF4CFEAFF000EE9262F
:1022D000030EEA220C0EE926000EEA22EF50800BD4
:1022E00065E002500D0DF3CFE9FFF4CFEAFF000ED9
:1022F000E926030EEA220C0EE926000EEA22EF5030
:10230000200B54E00201516B5151512BEA6A820FAC
:10231000E96E030EEA22030EEF6E6C6B6C8B6C8120
:102320006C93010E6F6F706F02500D0DF3CFE9FFCC
:10233000F4CFEAFF000EE926030EEA22EECF71F297
:10234000EDCF72F202500D0DF3CFE9FFF4CFEAFFAB
:10235000000EE926030EEA22020EE926000EEA220A
:10236000E9CF6DF2EACF6EF251C2E6FF820EE66E61
:10237000030EE66E6CC2E6FFE9CFE6FFEACFE6FFAA
:102380006FC2E6FF70C2E6FF71C2E6FF72C2E6FFEF
:1023900074EC18F04AE9036A046AFF0E035C0F0E3E
:1023A000045804E2032A000E0422F7D702500D0D50
:1023B000F3CFE9FFF4CFEAFF000EE926030EEA228D
:1023C0000C0EE926000EEA22EF6A022A75D70050A9
:1023D0000D0DF3CFE9FFF4CFEAFF000EE926030E5F
:1023E000EA220C0EE926000EEA22EF50800B01E1F2
:1023F00092D000500D0DF3CFE9FFF4CFEAFF000EAD
:10240000E926030EEA220C0EE926000EEA22EF501E
:10241000200B01E180D002015651005C01E07BD02D
:10242000516B5151512BEA6A820FE96E030EEA2279
:10243000030EEF6E6C6B6C8B6C816C93010E6F6F87
:10244000706F00500D0DF3CFE9FFF4CFEAFF000EDF
:10245000E926030EEA22EECF71F2EDCF72F20050C0
:102460000D0DF3CFE9FFF4CFEAFF000EE926030ECE
:10247000EA22020EE926000EEA22E9CF6DF2EACF47
:102480006EF251C2E6FF820EE66E030EE66E6CC27D
:10249000E6FFE9CFE6FFEACFE6FF6FC2E6FF70C2D4
:1024A000E6FF71C2E6FF72C2E6FF74EC18F04AE97B
:1024B000036A046AFF0E035C0F0E045804E2032A49
:1024C000000E0422F7D7026A0A0E025C11E20250E3
:1024D0000D0DF3CFE9FFF4CFEAFF000EE926030E5E
:1024E000EA220C0EE926000EEA22EF6A022AECD755
:1024F000020156695269536954695569540EE66E72
:10250000020EE66E520EE66E020EE66EE3EC1AF076
:0E25100044E90201579344E9E7CFD9FF1200D6
:02251E00D9CF13
:10252000E6FFE1CFD9FF84E941E8F250100B01E06A
:10253000010E046EF2988B900F0101EB65FF02EB28
:1025400066FF030ED89066336533E804FBE17F0E27
:102550000F0165158009E66E5AEC2FF041E90F0175
:1025600001EB65FF02EB66FF050ED8906537663715
:10257000E804FBE1E00E0F0165151009E66E5AEC68
:102580002FF041E900EBE6FF5AEC2FF041E98B8098
:102590000450E8B0F288E8A0F29842E9E7CFD9FF0A
:1025A0001200D9CFE6FFE1CFD9FF83E941E8F2502D
:1025B000100B01E0010E036EF2988B9001EBE6FF29
:1025C0005AEC2FF041E900EBE6FF5AEC2FF041E91D
:1025D0008B800350E8B0F288E8A0F29842E9E7CF98
:1025E000D9FF1200D9CFE6FFE1CFD9FF82E942E857
:1025F000F250100B01E0010E036EF2988B9000EB8D
:10260000E6FF5AEC2FF041E96EEC2FF0026E8B8062
:102610000350E8B0F288E8A0F298025043E9E7CF0F
:10262000D9FF1200D9CFE6FFE1CFD9FF83E942E815
:10263000F250100B01E0010E046EF2988B900F0126
:1026400000EB65FF01EB66FF030ED8906633653340
:10265000E804FBE17F0E0F016517000E6617800E80
:102660006511E66E5AEC2FF041E90F0100EB65FFB2
:1026700001EB66FF050ED89065376637E804FBE18D
:10268000E00E0F016515E66E5AEC2FF041E96EEC95
:102690002FF0036E8B800450E8B0F288E8A0F29827
:1026A000035043E9E7CFD9FF1200D9CFE6FFE1CFCE
:1026B000D9FF81E943E88B94026A036A2C0E025C1D
:1026C000010E035804E2022A000E0322F7D78B847E
:1026D000026A036A2C0E025C010E035804E2022A0D
:1026E000000E0322F7D7070EE66E550EE66E59DF91
:1026F00042E9540EE66E76DF41E9016E070E0114E1
:10270000F8E1026A036AE80E025C030E035804E271
:10271000022A000E0322F7D7010EE66E1B0EE66EAC
:1027200040DF42E9E668070EE66E3BDF42E9E66815
:10273000090EE66E36DF42E9E668030EE66E31DF2B
:1027400042E9E668050EE66E2CDF42E9016A080EF2
:10275000015C11E201500001EA6AF025E96EF151D5
:10276000EA22EFCFE6FF0150E8240B0FE66E19DFF7
:1027700042E9012AECD7800EE66E020EE66EE66EA6
:10278000CEDE43E9E66A030EE66E020EE66EC7DEB3
:1027900043E9900EE66E060EE66E020EE66EBFDEB2
:1027A00043E9800EE66E070EE66E020EE66EB7DEB9
:1027B00043E9100EE66E080EE66E020EE66EAFDE20
:1027C00043E9210EE66E200EE66E020EE66EA7DEEF
:1027D00043E9800EE66E750EE66EE3DE42E9400EDA
:1027E000E66E7D0EE66EDDDE42E9600EE66E7F0E81
:1027F000E66ED7DE42E9980EE66E310EE66ED1DE69
:1028000042E9950EE66E5D0EE66ECBDE42E90F0EF6
:10281000E66E020EE66E06DF42E9016EA00E0114BE
:10282000A008F5E1E60EE66E650EE66EBADE42E958
:10283000030EE66EE66A020EE66E71DE43E9020EF4
:10284000E66E010EE66E020EE66E69DE43E9E66AAA
:10285000F3C0E6FF71EC1AF042E944E9E7CFD9FF93
:102860001200D9CFE6FFE1CFD9FF81E943E881A08B
:10287000F2820001F8A11ED0FEC365FFFFC366FF10
:102880000F01676B686BD8906851000A08E6800EEC
:10289000655D000E6659000E6759000E685906E323
:1028A0000301FE6BFF6B0001F89104D00301FE2BC6
:1028B000000EFF230301FD69016A020E015C12E2B2
:1028C0000150800DF3CFE9FFF4CFEAFF000EE926B7
:1028D000010EEA22EF50000803E201EBFDF302D003
:1028E000012AEBD7020E0301FD5D01E3E8D3010EDF
:1028F000036EFD51800DF3CFE9FFF4CFEAFF000E28
:10290000E926010EEA22EE52EF50400B01E1036A84
:102910000201736B7B6B0301FD51800DF3CFE9FF67
:10292000F4CFEAFF000EE926010EEA22EE52E92A70
:10293000000EEA22EF50CC0B026E0250080A01E1B1
:1029400068D3840A01E18BD2040A01E1ACD1080A00
:1029500001E14CD14C0A01E195D0040A01E059D3C0
:10296000FD51800DF3CFE9FFF4CFEAFF000EE92619
:10297000010EEA22EE52050EE926000EEA22EF5081
:10298000FF0814E1FD51800DF3CFE9FFF4CFEAFF1A
:10299000000EE926010EEA22EE52060EE926000E8E
:1029A000EA22EF50FF0802E1020173850201738FF2
:1029B000035034E00301FD51800DF3CFE9FFF4CF64
:1029C000EAFF000EE926010EEA22EE52030EE92686
:1029D000000EEA22EFCF7CF2FD51800DF3CFE9FF2C
:1029E000F4CFEAFF000EE926010EEA22EE52040EB1
:1029F000E926000EEA22EFCF7DF2FD51800DF3CFE4
:102A0000E9FFF4CFEAFF000EE926010EEA22EE52BA
:102A1000E9CF74F2EACF75F2070E5AD20301FD51E5
:102A2000800DF3CFE9FFF4CFEAFF000EE926010E97
:102A3000EA22EE52070EE926000EEA22EFCF7CF2E0
:102A4000FD51800DF3CFE9FFF4CFEAFF000EE92638
:102A5000010EEA22EE52080EE926000EEA22EFCF1E
:102A60007DF2FD51800DF3CFE9FFF4CFEAFF000EB8
:102A7000E926010EEA22EE52E9CF74F2EACF75F2AE
:102A8000090E7ED20201738F035058E00301FD51FD
:102A9000800DF3CFE9FFF4CFEAFF000EE926010E27
:102AA000EA22EE52030EE926000EEA22EFCF7CF274
:102AB000FD51800DF3CFE9FFF4CFEAFF000EE926C8
:102AC000010EEA22EE52040EE926000EEA22EFCFB2
:102AD0007DF2FD51800DF3CFE9FFF4CFEAFF000E48
:102AE000E926010EEA22EE52E9CF74F2EACF75F23E
:102AF0000D0E02017427000E75230301FD51800D98
:102B0000F3CFE9FFF4CFEAFF000EE926010EEA2237
:102B1000EF50E70F0201786F0301FD51800DF3CFF5
:102B2000E9FFF4CFEAFF000EE926010EEA22EE5299
:102B3000E9CF76F2EACF77F2150E46D20301FD51C6
:102B4000800DF3CFE9FFF4CFEAFF000EE926010E76
:102B5000EA22EE520D0EE926000EEA22EFCF7CF2B9
:102B6000FD51800DF3CFE9FFF4CFEAFF000EE92617
:102B7000010EEA22EE520E0EE926000EEA22EFCFF7
:102B80007DF2FD51800DF3CFE9FFF4CFEAFF000E97
:102B9000E926010EEA22EE52E9CF74F2EACF75F28D
:102BA0000F0E02017427000E75230301FD51800DE5
:102BB000F3CFE9FFF4CFEAFF000EE926010EEA2287
:102BC000EF50E50F0201786F0301FD51800DF3CF47
:102BD000E9FFF4CFEAFF000EE926010EEA22EE52E9
:102BE000E9CF76F2EACF77F2170EEED102017385C4
:102BF000738F010E7B6F0301FD51800DF3CFE9FF51
:102C0000F4CFEAFF000EE926010EEA22EE52030E8F
:102C1000E926000EEA22EFCF7CF2FD51800DF3CFC2
:102C2000E9FFF4CFEAFF000EE926010EEA22EE5298
:102C3000040EE926000EEA22EFCF7DF2FD51800D51
:102C4000F3CFE9FFF4CFEAFF000EE926010EEA22F6
:102C5000EE52E9CF74F2EACF75F2050E0201742745
:102C6000000E75230301FD51800DF3CFE9FFF4CF72
:102C7000EAFF000EE926010EEA22EF50F50F0201ED
:102C8000786F0301FD51800DF3CFE9FFF4CFEAFF28
:102C9000000EE926010EEA22EE52E9CF76F2EACFE3
:102CA00077F2070E91D1FD51800DF3CFE9FFF4CFFC
:102CB000EAFF000EE926010EEA22EE52050EE92691
:102CC000000EEA22EF50FF0814E1FD51800DF3CF12
:102CD000E9FFF4CFEAFF000EE926010EEA22EE52E8
:102CE000060EE926000EEA22EF50FF0802E102017B
:102CF00073850201738F010E7B6F035058E103014E
:102D0000FD51800DF3CFE9FFF4CFEAFF000EE92675
:102D1000010EEA22EE52070EE926000EEA22EFCF5C
:102D20007CF2FD51800DF3CFE9FFF4CFEAFF000EF6
:102D3000E926010EEA22EE52080EE926000EEA22EA
:102D4000EFCF7DF2FD51800DF3CFE9FFF4CFEAFF25
:102D5000000EE926010EEA22EE52E9CF74F2EACF24
:102D600075F2090E02017427000E75230301FD514F
:102D7000800DF3CFE9FFF4CFEAFF000EE926010E44
:102D8000EA22EF50F10F0201786F0301FD51800D2F
:102D9000F3CFE9FFF4CFEAFF000EE926010EEA22A5
:102DA000EE52E9CF76F2EACF77F20B0E0DD10301A6
:102DB000FD51800DF3CFE9FFF4CFEAFF000EE926C5
:102DC000010EEA22EE52030EE926000EEA22EFCFB0
:102DD0007CF2FD51800DF3CFE9FFF4CFEAFF000E46
:102DE000E926010EEA22EE52040EE926000EEA223E
:102DF000EFCF7DF2FD51800DF3CFE9FFF4CFEAFF75
:102E0000000EE926010EEA22EE52E9CF74F2EACF73
:102E100075F2070E02017427000E75230301FD51A0
:102E2000800DF3CFE9FFF4CFEAFF000EE926010E93
:102E3000EA22EF50F30F0201786F0301FD51800D7C
:102E4000F3CFE9FFF4CFEAFF000EE926010EEA22F4
:102E5000EE52E9CF76F2EACF77F2090EB5D0020151
:102E6000738F010E7B6F035058E00301FD51800DFD
:102E7000F3CFE9FFF4CFEAFF000EE926010EEA22C4
:102E8000EE52030EE926000EEA22EFCF7CF2FD514E
:102E9000800DF3CFE9FFF4CFEAFF000EE926010E23
:102EA000EA22EE52040EE926000EEA22EFCF7DF26E
:102EB000FD51800DF3CFE9FFF4CFEAFF000EE926C4
:102EC000010EEA22EE52E9CF74F2EACF75F20C0E4F
:102ED00002017427000E75230301FD51800DF3CF0D
:102EE000E9FFF4CFEAFF000EE926010EEA22EF50D7
:102EF000ED0F0201786F0301FD51800DF3CFE9FF63
:102F0000F4CFEAFF000EE926010EEA22EE52E9CFE5
:102F100076F2EACF77F20F0E57D00301FD51800D04
:102F2000F3CFE9FFF4CFEAFF000EE926010EEA2213
:102F3000EE520C0EE926000EEA22EFCF7CF2FD5194
:102F4000800DF3CFE9FFF4CFEAFF000EE926010E72
:102F5000EA22EE520D0EE926000EEA22EFCF7DF2B4
:102F6000FD51800DF3CFE9FFF4CFEAFF000EE92613
:102F7000010EEA22EE52E9CF74F2EACF75F20E0E9C
:102F800002017427000E75230301FD51800DF3CF5C
:102F9000E9FFF4CFEAFF000EE926010EEA22EF5026
:102FA000EB0F0201786F0301FD51800DF3CFE9FFB4
:102FB000F4CFEAFF000EE926010EEA22EE52E9CF35
:102FC00076F2EACF77F2110E02017627000E772310
:102FD0000301FD51800DF3CFE9FFF4CFEAFF000EAE
:102FE000E926010EEA22EE52EF50080B12E1FD51E4
:102FF000800DF3CFE9FFF4CFEAFF000EE926010EC2
:10300000EA22EE52EF50070B0EE0030A08E0020A34
:1030100003E05AD8000E54D00201739102D002018D
:103020007381739303D00201738173830301FD5194
:10303000800DF3CFE9FFF4CFEAFF000EE926010E81
:10304000EA22EE52E9CF65FFEACF66FFFD51800D1F
:10305000F3CFE9FFF4CFEAFF000EE926010EEA22E2
:10306000EF50FE0F0F01EA6A6525E96E6651EA220C
:10307000EFCF7AF20301FD51800DF3CFE9FFF4CFDA
:10308000EAFF000EE926010EEA22EE52E9CF65FFC3
:10309000EACF66FFFD51800DF3CFE9FFF4CFEAFFE1
:1030A000000EE926010EEA22EF040F01EA6A652507
:1030B000E96E6651EA22EFCF79F2010E01D0000EDF
:1030C00044E9E7CFD9FF1200020E0301FD5D0BE2D8
:1030D000FD51800DF3CFE9FFF4CFEAFF000EE926A2
:1030E000010EEA22EF6A1200D9CFE6FFE1CFD9FF45
:1030F0008BE94CE80C6A0D6AD950030FE96EDACF00
:10310000EAFFEF50040B02E0010E066ED950030FE8
:10311000E96EDACFEAFFEF50080B01E0076AD950F9
:10312000030FE96EDACFEAFFEF50030B010802E16B
:10313000030E0AD0D950030FE96EDACFEAFFEF5041
:10314000030B000902E1010E0D6E0001F451081895
:103150000DE1F55109180AE1F41D01E1F51D06E044
:10316000050E0B6E0D8C010E0E6E03D0070E0B6E4E
:103170000E6A065002E0020E01D0080E0B26075020
:1031800002E0020E01D0080E0B26D950030FE96EA3
:10319000DACFEAFFEF50200B09E0D950030FE96EB8
:1031A000DACFEAFFEF50040B01E10D8AD950030F8B
:1031B000E96EDACFEAFFEF50030B030807E10D6A6F
:1031C000070E0B6E0E6A010E076E039A0BEBE6FFFD
:1031D0000C500C2AE66EE66A8FEC12F043E90B50B5
:1031E0000024E66E0C500C2AE66EE66A8FEC12F0B4
:1031F00043E90DEBE6FF0C500C2AE66EE66A8FEC15
:1032000012F043E9D950030FE96EDACFEAFFEF502D
:10321000030B03080EE1800EE66E0C500C2AE66EDE
:10322000E66A8FEC12F043E90001F251F22BE66EF0
:1032300060D0065004E0075002E0880E0DD0065022
:1032400004E0075002E1C80E07D0065004E107046D
:1032500002E18C0E01D0CC0EE66E0C500C2AE66E0C
:10326000E66A8FEC12F043E90001F251F22BE66EB0
:103270000C500C2AE66EE66A8FEC12F043E908EB7C
:10328000E6FF0C500C2AE66EE66A8FEC12F043E97A
:1032900009EBE6FF0C500C2AE66EE66A8FEC12F0A2
:1032A00043E9D950030FE96EDACFEAFFEF50040B80
:1032B0000AE0E6680C500C2AE66EE66A8FEC12F023
:1032C00043E9E66816D006501CE004EBE9FF05EB85
:1032D000EAFFEFCFE6FF0C500C2AE66EE66A8FECB1
:1032E00012F043E90428E96E000E0520EA6EEFCFE4
:1032F000E6FF0C500C2AE66EE66A8FEC12F043E90A
:1033000015D00D6A080E0D5C11E20D500424E96E13
:10331000000E0520EA6EEFCFE6FF0C500C2AE66E99
:10332000E66A8FEC12F043E90D2AECD70E5012E159
:10333000F4C0E6FF0C500C2AE66EE66A8FEC12F041
:1033400043E9F5C0E6FF0C500C2AE66EE66A8FEC06
:1033500012F043E9075013E0F6C0E6FF0C500C2AC8
:10336000E66EE66A8FEC12F043E9F7C0E6FF0C5018
:103370000C2AE66EE66A8FEC12F043E916D00D6A6D
:10338000080E0D5C12E20D500001EA6AF025E96EAC
:10339000F151EA22EFCFE6FF0C500C2AE66EE66A06
:1033A0008FEC12F043E90D2AEBD70D6A00500D5C4B
:1033B00011E20D500124E96E000E0220EA6EEFCFFB
:1033C000E6FF0C500C2AE66EE66A8FEC12F043E939
:1033D0000D2AECD70001F881D950030FE96EDACF3E
:1033E000EAFFEF50200B0CE0D950030FE96EDACF63
:1033F000EAFFEF50040B04E1050E0D6EF88303D0D5
:10340000010E0D6EF8930DEBE6FF370EE66ED1EC74
:1034100012F042E9B9EC2DF0F9C065FFFAC066FF81
:10342000FBC067FFFCC068FF0F0165510F6E66515E
:10343000106E6751116E6851126E81A0F282000108
:10344000F8B104D0F8A548D0F89544D0B9EC2DF0E7
:10345000F9C065FFFAC066FFFBC067FFFCC068FFEC
:103460000F016551136E6651146E6751156E6851E8
:10347000166E13EB69FF14EB6AFF15EB6BFF16EB8F
:103480006CFFD9500F0FE96EDACFEAFFEE50695D9D
:10349000656FEE506A59666FEE506B59676FEE506C
:1034A0006C59686FD880C40E6555090E6655000EBC
:1034B0006755000E6855C1E255EC13F0F40EE66E48
:1034C000000EE66EF60EE66E000EE66E7CD844E95F
:1034D0000001F891000E01D0010E4DE9E7CFD9FFB0
:1034E0001200D9CFE6FFE1CFD9FF83E90B0E015CD3
:1034F00003E301501A0802E2000E1CD001EBF3F0C6
:103500000B0E015C100DF3500309E66EE66A020E25
:10351000E66E8FEC12F043E9040EE66E6D0EE66E79
:10352000D1EC12F042E9E66A6D0EE66ED1EC12F0D3
:1035300042E9010E41E9E7CFD9FF1200D9CFE6FFFA
:10354000E1CFD9FF82E942E80A0EE66E00EBE6FF22
:1035500015EC28F041E9E750036E0A0EE66E00EB29
:10356000E6FF12EC28F041E9E750400DF350026EFF
:103570000350050802E2380E17D00350040802E297
:10358000300E12D00350030802E2280E0DD0035073
:10359000020802E2200E08D00350010802E2180ED1
:1035A00003D0035002E0100E022602EBE6FF030EEA
:1035B000E66E020EE66E8FEC12F043E9010E43E96F
:1035C000E7CFD9FF1200D9CFE6FFE1CFD9FF85E9D8
:1035D00002EBE9FF03EBEAFFEFCFF6F00228E96E1A
:1035E000000E0320EA6EEFCFF7F000EBE9FF01EBEE
:1035F000EAFFEFCFF4F00028E96E000E0120EA6E3A
:10360000EFCFF5F0F6C0E6FF070EE66ED1EC12F054
:1036100042E9F7C0E6FF090EE66ED1EC12F042E98E
:10362000F4C0E6FF030EE66ED1EC12F042E9F5C0FD
:10363000E6FF050EE66ED1EC12F042E9010E41E91B
:10364000E7CFD9FF1200D9CFE6FFE1CFD9FF84E958
:1036500041E800EBEFF001EBF0F002EBF1F0D6CF38
:10366000F2F000010B0EF36F55EC13F00001F86B54
:10367000046A020E045C0DE20450800DF3CFE9FFF2
:10368000F4CFEAFF000EE926010EEA22EF6A042ACF
:10369000F0D7010E42E9E7CFD9FF1200D8CFE4FFFF
:1036A000E0CFE4FFE46EDACFE4FFE2CFDAFFE9CF68
:1036B000E4FFEACFE4FFF9C0E4FFFAC0E4FFFBC097
:1036C000E4FFFCC0E4FFF6CFE4FFF7CFE4FFF5CF63
:1036D000E4FFF3CFE4FFF4CFE4FFFACFE4FF0FEE13
:1036E00065F0080EE80403E3EECFE4FFFBD7E652F3
:1036F000D9CFE6FFE1CFD9FF81E946E8F250100BC0
:1037000001E1D8D0F250020B01E1D4D0F292620E66
:10371000E66EF2EC12F041E9036ED950030FE96E48
:10372000DACFEAFFEF50010B1AE00001F891030134
:10373000FE6BFF6B0001F8A312D0480EE66EF2ECB0
:1037400012F041E9056ED950050FE96EDACFEAFFB4
:10375000EF50010B02E00001F8850001F893D95009
:10376000030FE96EDACFEAFFEF50080B01E193D0C7
:103770000668016A020E015C11E20150800DF3CF70
:10378000E9FFF4CFEAFF000EE926010EEA22EF502E
:1037900003E181EB06F002D0012AECD7020E065CB1
:1037A00073E2040EE66E730EE66ED1EC12F042E99F
:1037B000E66A030EE66E12EC13F042E9020FE66EC3
:1037C0000650800DF3CFE9FFF4CFEAFF000EE926A3
:1037D000010EEA22E552E750EF6E0650800DF3CF5E
:1037E000E9FFF4CFEAFF000EE926010EEA22EFCF4F
:1037F0006DFF7F0E0F016D5D3DE20001F88B010E44
:10380000016E0650800DF3CFE9FFF4CFEAFF000E02
:10381000E926010EEA22EF50020FD88001542AE374
:1038200001500F01706B000F6F6F030E70236FCF8D
:10383000E6FF70CFE6FF12EC13F042E9E66E0650A9
:10384000800DF3CFE9FFF4CFEAFF000EE926010E69
:10385000EA22EE52E9CF6DFFEACF6EFF01040F01BD
:10386000EA6AE924E96E6E51EA22E552E750EF6E0A
:10387000012AC7D7010EE66E1B0EE66ED1EC12F0E0
:1038800042E9E66A730E03D0010EE66E1B0EE66E89
:10389000D1EC12F042E9D950030FE96EDACFEAFF1A
:1038A000EF50100B07E0800EE66E590EE66ED1EC7D
:1038B00012F042E9F2A409D0F2AA07D0F2940F0163
:1038C000752B755102E10F01762B63EC2DF047E962
:1038D000E7CFD9FFE5520FEE6CF0080EE80403E3E2
:1038E000E5CFEDFFFBD7E5CFFAFFE5CFF4FFE5CF5E
:1038F000F3FFE5CFF5FFE5CFF7FFE5CFF6FFE5CF27
:10390000FCF0E5CFFBF0E5CFFAF0E5CFF9F0E5CF3D
:10391000EAFFE5CFE9FFE5CFDAFFE550E5CFE0FFCD
:06392000E5CFD8FF100006
:0A39260090DB86E90150010600095C
:103930000CE002EBE6FF03EBE6FF00EBE6FF69DBE2
:10394000F4E1661DF2E1010E01D0000E41E9E5CF80
:10395000DAFFE7CFD9FF120077DB89E97BE80A6A53
:103960000B6A02EBF6FF03EBF7FF04EBF8FF08002E
:10397000F550096E095001E12DD3250E095C01E0D7
:103980001BD30C6A0D6A0E6A0F6A106A2DDB2D0EAE
:10399000095C0CE02B0E095C09E0200E095C06E0D6
:1039A000230E095C03E0300E095C15E10950300A72
:1039B00010E0130A0CE0030A08E00B0A04E0060A10
:1039C000E5E10C80E3D70C82E1D70C84DFD70C86CD
:1039D000DDD70C88DBD72A0E095C13E1A5DB0DE3EC
:1039E0000C801CEB65FF1DEB66FF0F01656D661F0C
:1039F000000E662365510D6E02D09CEB0DF0F4DADB
:103A000007D0126A3FDB02E06BDBFCD792EB0DF0D4
:103A10000CB00C982E0E095C15E1E6DA2A0E095C52
:103A200008E182DB04E29CEB0EF0010E0F6EDCDAA3
:103A300009D0126A27DB02E053DBFCD792EB0EF0D1
:103A4000010E0F6E680E095C07E1CEDA680E095CA4
:103A50001DE1030E106E19D0740E095C16E07A0E8B
:103A6000095C13E0480E095C06E0540E095C03E0B3
:103A70005A0E095C02E1020E07D06C0E095C03E0ED
:103A80006A0E095C03E1010E106EAEDA09506E0A8F
:103A900001E16ED21E0A01E128D1200A01E125D1FF
:103AA0003F0A01E1FDD01A0A01E1FAD00D0A01E155
:103AB000F7D0200A01E1F4D03A0A01E1F1D0200A5E
:103AC00001E1EED0260A01E1EAD00D0A01E1E7D0DA
:103AD0001A0A01E19ED0200A3BE0300A1AE0460AA9
:103AE0000EE0250A01E072D2D950020FE96E000EF5
:103AF000DA20EA6E010EEE5E000EEE5AEE5A0FDB91
:103B0000250EE66E86DA03E1661D01E159D20A2A26
:103B10005BD2116A0D50010803E20D04116EF5DA53
:103B2000115007E0010E0C1404E16DDA01E048D2F7
:103B3000116AD3DAEF50096ECBDA03E1661D01E1B9
:103B40003FD20A2A000E0B225EDA01E13FD238D2C0
:103B5000020E105C08E1030E4EDAEE50176EEE50C6
:103B6000186EEF5007D0E7DA676B6551176E665134
:103B7000186E6751196E17EBE6FF18EBE6FF19EBAD
:103B8000E6FF93EC29F043E9F9C065FFFAC066FF50
:103B9000FBC067FF0F0165511C6E66511D6E0F5013
:103BA00006E01C500E5C03E20E501C6E1D6A1C5099
:103BB0000D5C02E29CEB0DF050DA05E00D500E5C5E
:103BC00002E28EEB0DF00CB004D01DDA01E0F8D16A
:103BD000116A126A17EBF6FF18EBF7FF19EBF8FF03
:103BE0000800F550096E095010E00D50125C0DE20E
:103BF0006FDA03E1661D01E1E3D10A2A000E0B2210
:103C0000122AD950170F55DAEBD7FDD901E1DED1D1
:103C1000D7D163DAEE501A6EED501B6E1AEBE6FF49
:103C20001BEBE6FF85EC29F042E9F3501C6EF450E3
:103C30001D6E0F5006E01C500E5C03E20E501C6E11
:103C40001D6A1C500D5C02E29CEB0DF006DA05E0EB
:103C50000D500E5C02E28EEB0DF00CB004D0D3D907
:103C600001E0AED1116A126A1AEBE9FF1BEBEAFF21
:103C7000EF50096E09500FE00D50125C0CE228DA8B
:103C800003E1661D01E19CD10A2A000E0B22122AD3
:103C90001A2A1B22E9D7B7D901E198D191D10C8E0C
:103CA00010040AE1040EA7D9EE50136EEE50146E04
:103CB000EE50156EEF5032D0030E105C16E10CAED4
:103CC0000CD00BDAEFCF65FF0F01666B676B686B8B
:103CD00065AF23D0666967691FD0FFD9EFCF65FF55
:103CE0000F016551136E146A20D0020E105C0CE1B6
:103CF0000CAE06D0030E7FD9B6D967AF0ED00CD06C
:103D0000030E79D9B0D909D00CAE0AD014DA676B9A
:103D1000686B66AF02D067696869BCD9166E07D058
:103D20000ADA6551136E6651146E156A166A0F50E1
:103D300002E1010E0E6E1E6A1F6AD950400FE66E38
:103D4000000EDA20E66EE552E550436EE750426E13
:103D5000416A116A0A0E106E0950780A12E0200AB0
:103D600010E0280A0CE0200A0AE03F0A06E00D0AEB
:103D700002E0200A08E1020E05D0080E03D0080E6A
:103D80000926100E106E0CBE02D00C920C94800E00
:103D90000C1417E0163415E3E668E668E668E66892
:103DA00042D9C2EC28F0E552E5CF68FFE5CF67FFC6
:103DB000E5CF66FFE7CF65FF0F016CD9166E2D0EBC
:103DC00007D00CA202D02B0E03D00CA404D0200EDE
:103DD000206E1E2A01D0206A0E5005E113501410E7
:103DE0001510161061E00F019C0E656F600E666F76
:103DF000000E676F83D97FEC28F0E552E5CF6BFFAB
:103E0000E5CF6AFFE5CF69FFE7CF68FF0F01655196
:103E10006825F36E66516921F46E67516A21F86E68
:103E2000F4CFF7FFF3CFF6FF0800F550126E580EEF
:103E3000095C05E1610E125C02E3200E125E5ED9A0
:103E40007CEC28F0E552E550166EE550156EE55015
:103E5000146EE750136E42EBE9FF43EBEAFF4206B4
:103E6000000E435A12EBEFFF1E2A135014101510C8
:103E70001610B9E10CA619D06F0E095C06E10E50C0
:103E80001E5C13E31E280E6E10D0780E095C09E04C
:103E9000580E095C06E0620E095C03E0420E095C04
:103EA00004E1020E1F6E01D01E6A100E0C1407E012
:103EB0000D500E5C04E20F5002E18DEB0EF00E503F
:103EC0001E5C03E21E500E5E01D00E6A0E501E24D0
:103ED0001F24D8800D5407E20E500D5CD8801E546C
:103EE000D8801F54116E010E0C1406E1115004E02D
:103EF0008AD866E10AD9116A205007E010D920EB70
:103F0000E6FF87D802E1661D5BE01F500BE007D992
:103F1000300EE66E7ED802E1661D52E0D9D802E18D
:103F2000661D4EE00E501F5C02E21F500E5E300E0A
:103F3000E66E0EEBE6FFDCD843E1422A000E432298
:103F400042EBE9FF43EBEAFFEF50126E125008E03C
:103F5000E6D812EBE6FF5DD8F0E1661DEEE130D069
:103F600052D82EE10E501E2411241F240A262CD0D4
:103F70001050030A1CE0010A14E0030A07E0ADD860
:103F8000C9D80AEBEEFF0BEBEDFF20D08BD8686BA6
:103F900066AF02D067696869A0D84ED868CFEEFFD7
:103FA00015D080D866BF676998D846D80FD095D805
:103FB000B1D80AEBEFFF0AD08BD805E1661D03E10B
:103FC000F368F4680BD00A2A000E0B22D950020FB6
:103FD00070D8CDD40AEBF3FF0BEBF4FF7CE9E5CF0F
:103FE000DAFFE7CFD9FF1200D950020F62D80800DC
:103FF000F550096E1200005E000E015A00EBE9FF59
:1040000001EBEAFF1200200EE66E11EBE6FF78EFFF
:1040100020F025EC2EF043E9F3CF65FFF4CF66FFE7
:104020000F01F31C120013EBE6FF14EBE6FF15EB98
:10403000E6FF16EBE6FF12006DD865CFEEFF66CF08
:10404000EEFF67CFEEFF1200D9CFE6FFDACFE6FF33
:10405000E1CFD9FFE2CFDAFF12001C500D5C116EE8
:1040600054D80F501200EECF65FFEECF66FFEFCFB2
:1040700067FF0F01686B1200EECF65FFEFCF66FFA1
:104080000F0112000950E66EE66AEAEC2FF042E9F1
:10409000F35012006551136E6651146E6751156E20
:1040A000685112000AEB65FF0BEB66FF0F01676BAF
:1040B0001200E96E000EDA20EA6EEF2AEECFF6FF6C
:1040C000000EEF22EECFF7FFEF22EECFF8FF120047
:1040D00026D809EBE6FF09EF20F0020EFBEF1FF0F8
:1040E0000A0E1202F3500924D00F126EF4EF1FF0E3
:1040F00016D893EC1CF044E90009120010EBE6FF1F
:10410000E66AE66AE66A13EF20F011500A26000E0E
:104110000B221200EE50EFCFEAFFE96E120005EB22
:10412000E6FF06EBE6FF1200D8DFEE501C6EED5006
:0C4130001D6E1D341200D1DF3CEF20F0AA
:04413C00D9CFE6FFF2
:10414000E1CFD9FF82E941E9E7CFD9FF1200D9CF0A
:10415000E6FFE1CFD9FF84E941E9E7CFD9FF1200BB
:10416000D9CFE6FFE1CFD9FF82E941E9E7CFD9FF17
:104170001200D9CFE6FFE1CFD9FF84E973CFE9FF81
:1041800074CFEAFF190EE926000EEA22EF6A73CF18
:10419000E9FF74CFEAFF190EEB50D880025432E2E7
:1041A00073CFE9FF74CFEAFF190EEB500024E96EDC
:1041B000000E0120EA6EEF50E66E73CFE9FF74CF78
:1041C000EAFF0F0EE926000EEA22E9CF65FFEACFEB
:1041D00066FF73CFE9FF74CFEAFF190EEB500F01B2
:1041E000EA6A6525E96E6651EA22E552E750EF6E0C
:1041F00073CFE9FF74CFEAFF190EE926000EEA2219
:10420000EF2AC5D773CFE9FF74CFEAFF190EE9266D
:10421000000EEA2202EBEFFF73CFE9FF74CFEAFF53
:104220001A0EE926000EEA22010EEF6E73CFE9FFA7
:1042300074CFEAFF0F0EEB50C96EC68841E9E7CF95
:10424000D9FF1200D9CFE6FFE1CFD9FF82E973CFC2
:10425000E9FF74CFEAFF0B0EE926000EEA22010EF9
:10426000EF6E73CFE9FF74CFEAFF0A0EE926000E66
:10427000EA22EF6A005035E0C7AA1DD073CFE9FFEC
:1042800074CFEAFF0C0EE926000EEA22050EEF6E4F
:1042900073CFE9FF74CFEAFF0E0EE926000EEA2283
:1042A000EF2A73CFE9FF74CFEAFF0D0EE926000E67
:1042B000EA22050E1FD0C7A40AD073CFE9FF74CF3E
:1042C000EAFF0C0EE926000EEA22080E13D073CF87
:1042D000E9FF74CFEAFF0C0EE926000EEA22070E72
:1042E00009D073CFE9FF74CFEAFF0C0EE926000E68
:1042F000EA22060EEF6E41E9E7CFD9FF1200D9CFCF
:10430000E6FFE1CFD9FF81E949E8026A036A046A5E
:10431000056A066AC6AC20D0C69C73CFE9FF74CF8D
:10432000EAFF0C0EE926000EEA22050EEF6E010EE2
:10433000066E73CFE9FF74CFEAFF0E0EE926000E7A
:10434000EA22EF2A73CFE9FF74CFEAFF0D0EE926C8
:10435000000EEA22040EEF6EC7A004D0C950016E11
:10436000010E026E065001E05FD173CFE9FF74CFFA
:10437000EAFF0C0EEB50070A01E1B4D00F0A01E18D
:104380007FD00E0A16E0030A01E04ED1C7A64CD139
:1043900002EBE6FF57DF41E973CFE9FF74CFEAFF95
:1043A0000C0EEB50080801E03FD1026A010E056EC9
:1043B0003BD1C7A822D073CFE9FF74CFEAFF0B0E21
:1043C000E926000EEA22EF2A025001E123D1C7AA12
:1043D000D1D073CFE9FF74CFEAFF0E0EE926000EAD
:1043E000EA22EF2A73CFE9FF74CFEAFF0D0EE92628
:1043F000000EEA22060EEF6E0DD1025001E114D13B
:1044000073CFE9FF74CFEAFF0B0EE926000EEA2214
:10441000EF2AC7BA18D0C7B40AD073CFE9FF74CF58
:10442000EAFF0C0EE926000EEA22070EFCD073CF3D
:10443000E9FF74CFEAFF0C0EE926000EEA22080E0F
:10444000EF6E010ED1D073CFE9FF74CFEAFF0E0EED
:10445000E926000EEA22EF2A73CFE9FF74CFEAFFC4
:104460000C0EE926000EEA22050EEF6E73CFE9FF6F
:1044700074CFEAFF0D0EE926000EEA22060ED3D015
:1044800073CFE9FF74CFEAFF1A0EEB500F01656F8F
:10449000190EEB50655D01E3BDD073CFE9FF74CF1A
:1044A000EAFF0F0EE926000EEA22E9CF65FFEACF08
:1044B00066FF73CFE9FF74CFEAFF1A0EEB50EA6A8A
:1044C0006525E96E6651EA22EF50C96E73CFE9FFA8
:1044D00074CFEAFF1A0EE926000EEA22EF2A010E37
:1044E000036EA2D0C7A849D073CFE9FF74CFEAFF0B
:1044F0000B0EE926000EEA22EF2A02503BE0C7AA83
:104500001CD073CFE9FF74CFEAFF73CF65FF74CF80
:1045100066FF0A0EEB500F01EA6A6525E96E6651E7
:10452000EA2201EBEFFF73CFE9FF74CFEAFF0A0E37
:10453000E926000EEA22EF2A1DD073CFE9FF74CFDF
:10454000EAFF0E0EE926000EEA22EF2A73CFE9FFFA
:1045500074CFEAFF0D0EE926000EEA22060EEF6E7A
:1045600073CFE9FF74CFEAFF0C0EE926000EEA22B2
:10457000050E4FD0010E046E4DD0025055E073CFA2
:10458000E9FF74CFEAFF0B0EE926000EEA22EF2ABC
:10459000C7AA1CD073CFE9FF74CFEAFF73CF65FFC2
:1045A00074CF66FF0A0EEB500F01EA6A6525E96ECB
:1045B0006651EA2201EBEFFF73CFE9FF74CFEAFF08
:1045C0000A0EE926000EEA22EF2A2ED0C7A40FD049
:1045D00073CFE9FF74CFEAFF0C0EE926000EEA2242
:1045E000080EEF6E010E046E056E026A1DD073CFC9
:1045F000E9FF74CFEAFF0E0EE926000EEA22EF2A49
:1046000073CFE9FF74CFEAFF0D0EE926000EEA2210
:10461000060EEF6E73CFE9FF74CFEAFF0C0EE926AA
:10462000000EEA22050EEF6E025002E1035002E096
:10463000C6A8C68873CFE9FF74CFEAFF0A0EEB5015
:1046400008081FE204501DE173CFE9FF74CFEAFFB1
:104650000C0EE926000EEA22050EEF6E73CFE9FF7D
:1046600074CFEAFF0E0EE926000EEA22EF2A73CF7E
:10467000E9FF74CFEAFF0D0EE926000EEA22070ECD
:10468000EF6E045031E073CFE9FF74CFEAFF0B0EF9
:10469000EB50E66E73CF65FF74CF66FF0A0EEB50EA
:1046A0000F01EA6A6525E96E6651EA22E552E75094
:1046B000EF6E73CFE9FF74CFEAFF73CF65FF74CF5E
:1046C00066FF73CFE6FF74CFE6FF280EE66E0A0E94
:1046D000EB50010FE66E59EC25F044E973CFE9FF8A
:1046E00074CFEAFF0A0E29D073CFE9FF74CFEAFF37
:1046F0000E0EEB500F01656F010E655D22E373CF67
:10470000E9FF74CFEAFF0E0EEB50076E0D0EEB5073
:10471000086E0B0EEB50096ED950070FE66EDACF1C
:10472000E6FF290EE66E030EE66E59EC25F044E92D
:1047300073CFE9FF74CFEAFF0E0EE926000EEA22DE
:10474000EF6A055013E073CFE9FF74CFEAFF73CF30
:1047500065FF74CF66FF73CFE6FF74CFE6FF2A0EC6
:10476000E66EE66A59EC25F044E9056A4AE9E7CFC6
:10477000D9FF1200D9CFE6FFE1CFD9FF83E900EBE3
:1047800073FF01EB74FF73CFE9FF74CFEAFF0A0EEA
:10479000E926000EEA22EF6A73CFE9FF74CFEAFF41
:1047A0000B0EE926000EEA22EF6A73CFE9FF74CF01
:1047B000EAFF0C0EE926000EEA22050EEF6E73CF1B
:1047C000E9FF74CFEAFF0E0EE926000EEA22EF6A37
:1047D00041E9E7CFD9FF1200D9CFE6FFE1CFD9FFFA
:1047E00082E99486948800EBC8FFC76AC66AC56AE6
:1047F0000E0EC612C78E94869488C580C68A41E97B
:06480000E7CFD9FF120012
:0A480600D9CFE6FFE1CFD9FF83E927
:1048100041E800EBE9FF01EBEAFF340EE926000E68
:10482000EA22EF6A00EBE9FF01EBEAFF350EE92629
:10483000000EEA22EF6A036A040E035C0FE200EB4B
:10484000E9FF01EBEAFF03500D0DE950F324E96E97
:10485000EA50F420EA6EEF6A032AEED742E9E7CF86
:10486000D9FF1200D9CFE6FFE1CFD9FF87E945E8AC
:1048700003500A6E0B6A04EBE9FF05EBEAFF340E06
:10488000E926000EEA22EF50076E04EBE9FF05EB84
:10489000EAFF07500D0D0F01F350E924086EF450A4
:1048A000EA20096E08EBE9FF09EBEAFFEF5002E0AE
:1048B000FF0E48D008EBE9FF09EBEAFFEE5203EBED
:1048C000EFFF08EBE9FF09EBEAFF020EE926000E15
:1048D000EA2202EBEFFF0AEBE6FF0BEBE6FF00EB51
:1048E000E6FF01EBE6FF08EBE9FF09EBEAFF030E49
:1048F000E926000EEA22E9CF65FFEACF66FFE9CF9D
:10490000E6FFEACFE6FF13EC29F046E904EBE9FF06
:1049100005EBEAFF340EE926000EEA22EF28030B2E
:10492000E66E04EBE9FF05EBEAFF340EE926000E24
:10493000EA22E552E750EF6E08EBE9FF09EBEAFFE8
:10494000010EEF6E46E9E7CFD9FF1200D9CFE6FF9F
:10495000E1CFD9FF88E945E805EBE9FF06EBEAFF7F
:10496000350EE926000EEA22EF50086E05EBE9FF4E
:1049700006EBEAFF08500D0D0F01F350E924096E14
:10498000F450EA200A6E09EBE9FF0AEBEAFFEF04B4
:104990005BE109EBE9FF0AEBEAFFEE52EF50045C42
:1049A00002E2FD0E52D009EBE9FF0AEBEAFFEE52FC
:1049B000EF500B6E0C6A0BEBE6FF0CEBE6FF09EB1E
:1049C000E9FF0AEBEAFF030EE926000EEA22E9CF2F
:1049D00065FFEACF66FFE9CFE6FFEACFE6FF00EB2F
:1049E000E6FF01EBE6FF13EC29F046E905EBE9FFF2
:1049F00006EBEAFF350EE926000EEA22EF28030B4C
:104A0000E66E05EBE9FF06EBEAFF350EE926000E40
:104A1000EA22E552E750EF6E09EBE9FF0AEBEAFF05
:104A2000020EE926000EEA22EF50E66E02EBE9FFE5
:104A300003EBEAFFE552E750EF6E09EBE9FF0AEB03
:104A4000EAFFEF6A0B5001D0FC0E46E9E7CFD9FF31
:104A50001200D9CFE6FFE1CFD9FF85E900EBE6FFF1
:104A600001EBE6FF02EBE6FF03EBE6FF360EE66E38
:104A7000040EE66EF7DE46E941E9E7CFD9FF120002
:104A8000D9CFE6FFE1CFD9FF86E900EBE6FF01EBE6
:104A9000E6FF02EBE6FF03EBE6FF04EBE6FF360E74
:104AA000E66E040EE66E52DF47E941E9E7CFD9FF33
:104AB0001200D9CFE6FFE1CFD9FF85E900EBE6FF91
:104AC00001EBE6FF02EBE6FF03EBE6FF000EE66E0E
:104AD000040EE66EC7DE46E941E9E7CFD9FF1200D2
:104AE000D9CFE6FFE1CFD9FF86E900EBE6FF01EB86
:104AF000E6FF02EBE6FF03EBE6FF04EBE6FF000E4A
:104B0000E66E040EE66E22DF47E941E9E7CFD9FF02
:104B10001200D9CFE6FFE1CFD9FF85E900EBE6FF30
:104B200001EBE6FF02EBE6FF03EBE6FF9E0EE66E0F
:104B3000020EE66E97DE46E941E9E7CFD9FF1200A3
:104B4000D9CFE6FFE1CFD9FF86E900EBE6FF01EB25
:104B5000E6FF02EBE6FF03EBE6FF04EBE6FF9E0E4B
:104B6000E66E020EE66EF2DE47E941E9E7CFD9FFD5
:104B70001200D9CFE6FFE1CFD9FF85E900EBE6FFD0
:104B800001EBE6FF02EBE6FF03EBE6FF000EE66E4D
:104B9000000EE66E67DE46E941E9E7CFD9FF120075
:104BA000D9CFE6FFE1CFD9FF86E900EBE6FF01EBC5
:104BB000E6FF02EBE6FF03EBE6FF04EBE6FF000E89
:104BC000E66E000EE66EC2DE47E941E9E7CFD9FFA7
:104BD00012000001366B360EE66E040EE66E13DE32
:104BE00042E9000EE66E040EE66E0DDE42E99E0E10
:104BF000E66E020EE66E07DE42E9000EE66E000E7D
:104C0000E66E01DE42E91200D38E03001200D9CF16
:104C1000E6FFE1CFD9FF83E900EBE9FF01EBEAFF13
:104C2000E9CF65FFEACF66FF00EBE9FF01EBEAFFA2
:104C3000350EE926000EEA22EF500D0D0F016551E9
:104C4000F324E96E6651F420EA6EEF5041E9E7CFB4
:104C5000D9FF12000001365101E1120044EC2DF0A1
:104C6000F3CF65FFF4CF66FF0F01F350F41001E0BE
:104C7000120024EC2DF0F3CF65FFF4CF66FF0F0197
:104C8000F350F41001E11200000EE66E040EE66E21
:104C9000BEDF42E9000901E01200360EE66E040EA6
:104CA000E66EB5DF42E9000901E0120004EF26F0EC
:104CB00050EC2DF0F3CF65FFF4CF66FFF350F41006
:104CC00001E112008A860001010E366F000EE66EC9
:104CD000040EE66E9CDF42E9000908E1360EE66E3E
:104CE000040EE66E94DF42E9000904E00001366B31
:104CF0008A9612000A0EE66EFCEC2FF041E98A76E5
:024D0000E5D7F5
:0E4D0200D9CFE6FFE1CFD9FF82E900EBE6FF53
:104D1000D3EC2FF041E941E9E7CFD9FF1200D9CF19
:104D2000E6FFE1CFD9FF81E97FE846E89B8CD950C7
:104D3000130FE66EDACFE6FF9EEC2BF042E9D95076
:104D4000420FE66EDACFE6FFB4EC2BF042E9E9EC75
:104D500025F0B8EC29F0960EE66E3FEC2FF041E915
:104D600020EC2DF09F809F9A9D8A9D80AFEC2DF0C6
:104D7000F50EE66EE2EC2EF041E9190EE66EE66AFB
:104D80006C0EE66E6EEC2DF043E9470EE66E550EA6
:104D9000E66EE66A58EC2EF043E9E66A01EC0AF0AA
:104DA00041E9000908E13A0EE66E550EE66EE66A44
:104DB00058EC2EF043E9180EE66E68EC0AF041E973
:104DC000000908E1270EE66E550EE66EE66A58EC1D
:104DD0002EF043E992921F0EE66E550EE66EE66ADD
:104DE00058EC2EF043E931EC14F0000909E0000E14
:104DF000E66EE66A320EE66EE66A59EC25F044E9A4
:104E000058EC26F0D950340FE66EDACFE6FFD950D1
:104E1000110FE66EDACFE6FF0A0EE66E70EC25F0B3
:104E200045E9106E103412E3FC0E105C01E182D0F3
:104E300010EB65FF0F01666B65BF666965CFE6FF26
:104E400066CFE6FFF10EE66E540E6FD01150320AB7
:104E500061E0180A49E0020A1FE0010A1DE0230A86
:104E60005EE1D950340FE66EDACFE6FF10EB65FF56
:104E70000F01666B65BF666965CFE6FF66CFE6FF2B
:104E80001150E66EE66AD950440FE66EDACFE6FFBF
:104E9000BCEC2EF048E94ED03F6A10503F5C19E25E
:104EA0000F01D950340F656FDACF66FF3F50EA6AC1
:104EB0006525E96EDA50EA22EF50E66EE66AED0EFD
:104EC000E66E540EE66EE66A58EC2EF045E93F2A8F
:104ED000E4D7B4EB12F0D950340FE66EDACFE6FF28
:104EE00063EC2CF042E926D0D950340FE66EDACFCD
:104EF000E6FF12EBE6FF1CEC2CF043E9106ED950F4
:104F0000340FE66EDACFE6FF10EBE6FFB9EC20F0E7
:104F100043E910D01EEC2AF064EC18F00BD01150CD
:104F2000E66EE66AC10EE66E540EE66EE66A58EC70
:104F30002EF045E9D950340FE66EDACFE6FFD950AE
:104F4000110FE66EDACFE6FF0A0EE66E40EC25F0B2
:104F500045E9106E103412E3FC0E105C01E143D7FA
:104F600010EB65FF0F01666B65BF666965CFE6FFF5
:104F700066CFE6FF940EE66E540E42D011501E0A24
:104F80001EE0010A1CE0140A35E1D950340FE66E28
:104F9000DACFE6FF10EB65FF0F01666B65BF666950
:104FA00065CFE6FF66CFE6FF1150E66EE66AD950A0
:104FB000420FE66EDACFE6FFDFEC2BF019D0D950C6
:104FC000340FE66EDACFE6FF10EB65FF0F01666B7C
:104FD00065BF666965CFE6FF66CFE6FF1150E66EF6
:104FE000E66AD950400FE66EDACFE6FFD7EC2AF03A
:104FF00048E9F9D61150E66EE66AC10EE66E540E27
:0C500000E66EE66A58EC2EF045E9EDD6AD
:04500C0042E8D9CFCE
:10501000E6FFDACFE6FFE1CFD9FFE2CFDAFF86E99C
:10502000036A1200F3DF038003D0F0DF01D00382B4
:10503000026A080EE76ED890013602360050025C14
:1050400002E3026E012AE72EF7D703B2120003B083
:1050500081EB00F003A082EB00F0E552E5CFDAFF30
:10506000E7CFD9FF43E9120043E8D9CFE6FFDACF13
:10507000E6FFE1CFD9FFE2CFDAFF89E9066A120045
:10508000F3DF068003D0F0DF01D00682056A046AF0
:10509000100EE76ED89002360336043605360050FF
:1050A000045C0150055805E30050045E0150055AA8
:1050B000022AE72EF0D706B2120006B006D084EB23
:1050C00000F085EB01F006A004D082EB00F083EB4A
:1050D00001F0E552E5CFDAFFE7CFD9FF45E912004D
:1050E00045E8D9CFE6FFDACFE6FFE1CFD9FFE2CF3F
:1050F000DAFF8FE90C6A1200F3DF0C8003D0F0DFD7
:1051000001D00C820B6A0A6A096A086A200EE76EEF
:10511000D8900436053606360736083609360A367C
:105120000B360050085C0150095802500A580350D1
:105130000B5809E30050085E0150095A02500A5A00
:1051400003500B5A042AE72EE4D70CB212000CB01D
:105150000AD088EB00F089EB01F08AEB02F08BEBD0
:1051600003F00CA008D084EB00F085EB01F086EB97
:1051700002F087EB03F0E552E5CFDAFFE7CFD9FF86
:1051800049E9120044E8D9CFE6FFDACFE6FFE1CFE4
:10519000D9FFE2CFDAFF8EE980EB08F081EB09F06E
:1051A00082EB0AF083EB0BF004500802F350006E20
:1051B000F450016E04500902F3500126000EF42051
:1051C000026E04500A02F3500226000EF420036E11
:1051D00004500B02F350032605500802F350012639
:1051E000F4500222000E032205500902F350022659
:1051F000F450032205500A02F35003260650080219
:10520000F3500226F450032206500902F3500326FD
:1052100007500802F3500326E552E5CFDAFFE7CF47
:06522000D9FF48E9000C73
:0A522600D9CFE6FFDACFE6FFFA0E5B
:10523000E3CFD9FFFB0EE3CFDAFFFC0EE3CFE9FFAC
:10524000FD0EE3CFEAFFE9CFF3FFEACFF4FFF80E5C
:10525000E35003E1F90EE35008E0F80EE30602E242
:10526000F90EE306DECFEEFFF2D7FF0EE3CFDAFF53
:10527000E552FF0EE3CFD9FFE5521200FB0EE3CF5C
:10528000F6FFFC0EE3CFF7FFFD0EE3CFF8FFFE0EB7
:10529000E3CFE9FFFF0EE3CFEAFFE9CFF3FFEACF69
:1052A000F4FF0900F5CFEFFFEE66FBD71200D9CF70
:1052B000E6FFDACFE6FFFA0EE3CFD9FFFB0EE3CF2E
:1052C000DAFFFC0EE3CFE9FFFD0EE3CFEAFFE9CF03
:1052D000F3FFEACFF4FFF80EE35003E1F90EE350D9
:1052E0000BE0F80EE30602E2F90EE306DECFEFFF75
:1052F000EE66F1D7DD52EFD7FF0EE3CFDAFFE552CE
:10530000FF0EE3CFD9FFE5521200FE0EE3CFE9FF17
:10531000FF0EE3CFEAFFF36AF46AEE5203E0F34ACA
:10532000F42AFBD71200FF0EE3CFF8FFE552FF0E81
:10533000E3CFF7FFE552FF0EE3CFF6FFE552E66A53
:10534000E66AE66A0900F55209E0FD0EE32A05E186
:10535000FE0EE32A02E1FF0EE32AF4D7FD0EE3CFAF
:10536000F9F0FE0EE3CFFAF0FF0EE3CFFBF01200F0
:10537000946A9488948E9482FE0E8B6E8B969380A2
:105380008A6A816AC66AF00EC6140209C66EC69899
:10539000C78CC78EC68AF292F288F19C1200D9CFD0
:1053A000E6FFE1CFD9FF86E942E880EB06F081EB2A
:1053B00007F002010B0E516F5151512BEA6A820F17
:1053C000E96E030EEA2204EBEFFF5151512BEA6A1A
:1053D000820FE96E030EEA22EF6A02EB65FF03EB30
:1053E00066FF0206000E035A0F016551661115E0B3
:1053F00006EBE9FF07EBEAFF062A000E0722EF5053
:10540000E66E02015151512BEA6A820FE96E030EDA
:10541000EA22E552E750EF6EE0D7E66A86EC0DF03F
:1054200041E9000902E02E0E01D02D0EE66E81EC5E
:1054300026F041E943E9E7CFD9FF12000201785194
:10544000E66EE66A7951E66EE66A8C0EE66E550EF9
:10545000E66EE66A58EC2EF047E902017851EA6AF6
:105460007625E96E7751EA22EF6A0D0E76250F0157
:10547000656F000E020177210F01666F65CFE6FFB1
:10548000E66E7C0EE66E550EE66EE66A58EC2EF081
:0454900045E91200D8
:0C5494004572726F723A20426164206C15
:1054A0006F77207072696F726974792072656365B5
:1054B0006976652C20636F6465203D2025780D0A90
:1054C000004572726F723A20556E6578706563742C
:1054D0006564206D736720696E2071756575652C34
:1054E0002074797065203D2025780D0A00202578EC
:1054F000004572726F723A20426164206869676881
:10550000207072696F72697479207265636569765B
:10551000652C20636F6465203D2025780D0A0048C6
:10552000656C6C6F0D0A005365744368616E6E653F
:105530006C206661696C65640A00496E6974206656
:1055400061696C65640A005374617274696E6721E5
:105550000A00257320006F76657272756E0A00541A
:10556000494D4552313A2025642025642025640D9B
:105570000A004E6F64652030212121005265636569
:10558000697665643A205B25735D0A005265636540
:1055900069766564207061636B657420525353496A
:0E55A0003A202564204C656E3A2025640A00EE
:0255AE00D9CF53
:1055B000E6FFE1CFD9FF89E942E81E0E04180BE1AE
:1055C000055009E1560EE66E550EE66EE66A58EC99
:1055D0002EF043E95AD01F0E041857E1055055E14B
:1055E00000500224E96E01500320EA6EEF6A00EBDE
:1055F000E6FF01EBE6FF520EE66E550EE66EE66A3A
:1056000058EC2EF045E9096A0A6A03340A50031877
:1056100004E60250095C03500A5837E2005009249E
:10562000E96E01500A20EA6EEF50E66E0F0177CF67
:10563000E9FF78CFEAFF772B000E7823800EE9266A
:10564000000EEA22E552E750EF6E640E771901E191
:10565000785109E000500924E96E01500A20EA6EF1
:10566000EF500D080EE177CFE6FF78CFE6FF800E12
:10567000E66E000EE66EC3EC2BF044E90F01776B8B
:10568000786B092A000E0A22C0D743E9E7CFD9FF79
:02569000120006
:0E5692009EAA44D002EC2FF0E66E71CFE9FF25
:1056A00072CFEAFF71CF65FF72CF66FF040EEB5039
:1056B0000F01EA6A6525E96E6651EA22E552E75074
:1056C000EF6E71CFE9FF72CFEAFF040EE926000EFC
:1056D000EA22EF2A71CFE9FF72CFEAFF040EEB5006
:1056E00004081DE171CFE9FF72CFEAFF71CF65FFBA
:1056F00072CF66FF71CFE6FF72CFE6FF1F0EE66E38
:10570000040EEB50E66E29EC25F044E971CFE9FF79
:1057100072CFEAFF040EE926000EEA22EF6A0F01BB
:105720007EA70BD0AB98AB88000EE66EE66A1E0E25
:10573000E66EE66A29EC25F044E91200D9CFE6FFCF
:10574000E1CFD9FF83E900EB71FF01EB72FF71CF6D
:10575000E9FF72CFEAFF040EE926000EEA22EF6AA3
:0857600041E9E7CFD9FF120077
:08576800D9CFE6FFE1CFD9FF24
:1057700083E900EBE9FF01EBEAFFEE6AED6A41E93C
:10578000E7CFD9FF1200D9CFE6FFE1CFD9FF85E9F6
:1057900000EBE6FF01EBE6FF02EBE6FF03EBE6FFC3
:1057A000000EE66E0F0EE66E57EC29F046E900EBB0
:1057B00079FF01EB7AFF41E9E7CFD9FF1200D9CF9A
:1057C000E6FFE1CFD9FF89E941E806EBE9FF07EB06
:1057D000EAFFEE2A000EEF220A0EE66EE66A06EBFC
:1057E000E9FF07EBEAFFEECFE6FFEECFE6FF43EC83
:1057F00028F0E552E5CF66FFE7CF65FF0F01090E00
:10580000651916E1665114E106EBE9FF07EBEAFFC3
:10581000E9CF65FFEACF66FFE9CFE6FFEACFE6FF13
:10582000140EE66E020EE66EB9EC25F044E9096E40
:0858300042E9E7CFD9FF1200A5
:08583800D9CFE6FFE1CFD9FF53
:1058400084E942E80250020A2BE0030A21E0010A3F
:1058500035E1D950040FE66EDACFE6FF01EC2EF009
:1058600042E9FF0E0414E66E00EBE9FF01EBEAFFEC
:10587000E552E750EF6E0F0105EB65FF666B002800
:10588000E96E000E0120EA6E65CFEFFF020E17D021
:1058900000EBE9FF01EBEAFFFFC0EFFF010E0FD0C5
:1058A000720EE66E550EE66EE66A00EBE6FF01EB61
:1058B000E6FF3EEC29F045E90A0E01D0000E43E96F
:1058C000E7CFD9FF1200D9CFE6FFE1CFD9FF83E9B7
:1058D00041E800EBE9FF01EBEAFFEF50036E0350F4
:1058E000010A07E10028E96E000E0120EA6EEFCF01
:0A58F000FFF042E9E7CFD9FF1200F4
:0658FA00D9CFE6FFE1CF6B
:10590000D9FF81E946E88A70000EE66EE66AA3ECEC
:105910002FF042E9D950010FE66EDACFE6FFD950F9
:10592000050FE66EDACFE6FF020EE66ED0EC25F04C
:1059300045E9036E046AE8BE0468020E03180EE12E
:1059400004500CE1D950010FE66EDACFE6FF0A0EE3
:10595000E66E020EE66E59EC25F044E947E9E7CF22
:10596000D9FF1200D9CFE6FFE1CFD9FF81E942E8A4
:105970008BEC2FF0F350016EF450026E000EE66EC9
:10598000E66A0B0EE66EE66A29EC25F044E9000EA5
:10599000E66EE66A73EC2FF042E943E9E7CFD9FF00
:0259A0001200F3
:0E59A2001E0EF66E000EF76E000EF86E00017F
:1059B0000900F550EA6F0900F550EB6F03E1EA6763
:1059C00001D03DD00900F550E56F0900F550E66FB4
:1059D0000900F550E76F09000900F550E96E09006C
:1059E000F550EA6E090009000900F550E86F09005A
:1059F000F550E96F09000900F6CFECF0F7CFEDF0B4
:105A0000F8CFEEF0E5C0F6FFE6C0F7FFE7C0F8FF1D
:105A10000001E85302E1E95307E00900F550EE6E9A
:105A2000E807F8E2E907F9D7ECC0F6FFEDC0F7FFA9
:105A3000EEC0F8FF0001EA07000EEB5BBFD71200D3
:105A4000D08EF28EF28C1200F250800B800A01E0B0
:105A5000010E0F01656F666B800B01E0666965CF13
:105A6000F3FF66CFF4FF1200F250400B400A01E052
:105A7000010E0F01656F666B800B01E0666965CFF3
