:020000040000FA
:0600000040EF01F01200C8
:0A0006000100AC0200000000000041
:040010000D000000DF
:0C001400F294F28A870ED66EE80ED56ECC
:10002000040EF214E81CFCE1DB0EF2161200D9CF2C
:10003000E6FFE1CFD9FF82E900EBE6FFEFEC00F04D
:1000400041E941E9E7CFD9FF1200C580C5B0FED72D
:100050001200C584C5B4FED71200D9CFE6FFE1CFA8
:10006000D9FF83E942E8F1DF00C0E6FFE0DF41E9C4
:1000700002C0E6FFDCDF41E9036A046A100ED89093
:1000800004BE03D0035C000E04580EE200EBE9FF4F
:1000900001EBEAFFEFCFE6FFCADF41E9002A000EDD
:1000A0000122032A0422EAD7D4DF43E9E7CFD9FFAC
:1000B0001200CBDF00C0E6FFBADF41E901C0E6FF76
:1000C000B6DF41E9310EE66EB2DF41E905C0E6FF79
:1000D000AEDF41E908C0E6FFAADF41E906C0E6FF5E
:1000E000A6DF41E907C0E6FFA2DF41E909C0E6FF5C
:1000F0009EDF41E90AC0E6FF9ADF41E90BC0E6FF57
:1001000096DF41E929EF00F09398939AC76AC66A8F
:10011000C56A140EC6121D0EC86EC78EC750040BDA
:1001200001E0010E0001176F1F0EC5141711F6E153
:10013000C0DF9A0EE66E020EE66E8FDF42E9F9D757
:10014000060EF66E000EF76E000EF86E0001090046
:10015000F550126F0900F550136F03E1126701D0DB
:100160003DD00900F5500D6F0900F5500E6F0900E4
:10017000F5500F6F09000900F550E96E0900F550C0
:10018000EA6E090009000900F550106F0900F550EA
:10019000116F09000900F6CF14F0F7CF15F0F8CF72
:1001A00016F00DC0F6FF0EC0F7FF0FC0F8FF0001FC
:1001B000105302E1115307E00900F550EE6E1007ED
:1001C000F8E21107F9D714C0F6FF15C0F7FF16C003
:0E01D000F8FF00011207000E135BBFD71200EC
:0201DE00D9CF77
:1001E000E6FFDACFE6FFE1CFD9FFE2CFDAFF83E91E
:1001F00000EBC9FFC6AE02D0FF0E2CD00F0EC61406
:1002000008080FE00F0EC6140B080BE0C6889EA668
:10021000FED7C750040B03E1C750010B18E0000ED6
:1002200019D00F0EC614080804E00F0EC6140B08F0
:1002300011E1C7B0FED7C750040B01E0010E000169
:10024000176F1F0EC5141711F6E1C5AC02D0FE0ED4
:1002500001D0000E41E9E5CFDAFFE7CFD9FF120068
:10026000C00EF36E00EE00F00E0E01D81200EA6030
:1002700002D0EE6AFCD7F350E9601200EE6AFCD7B8
:100280001DEE00F02DEE00F0F86AA0EC00F055EC49
:0A02900001F084EC00F0FBD712002F
:06029A00454345343533F5
:0A02A000342069732066756E21009A
:0202AA00120040
:0402AC007C00403062
:0902B0003114566D250C0601C045
:00000001FF
