:020000040000FA
:0600000020EF01F01200E8
:0A00060001006C0200000000000081
:040010000D000000DF
:0C001400D9CFE6FFE1CFD9FF82E941E936
:10002000E7CFD9FF1200D9CFE6FFE1CFD9FF82E9B0
:1000300043E880EB04F0026A036A080ED89003BE1E
:1000400003D0025C000E035816E2800E04148008F0
:1000500003E1818A8A8A02D0819A8A9A0450E8242C
:10006000046E81988A9881888A8881988A98022A61
:10007000000E0322E2D781888A88938A81AA05D05C
:1000800081988A9881888A88F9D7949281988A98E9
:1000900044E9E7CFD9FF120081888A88818A8A8A59
:1000A000819A8A9A81988A981200819A8A9A81986C
:1000B0008A9881888A88818A8A8A1200D9CFE6FF45
:1000C000E1CFD9FF83E942E8E7DF00C0E6FFABDF1D
:1000D00041E902C0E6FFA7DF41E9036A046A100EA6
:1000E000D89004BE03D0035C000E04580EE200EB6F
:1000F000E9FF01EBEAFFEFCFE6FF95DF41E9002AD8
:10010000000E0122032A0422EAD7CFDF43E9E7CF1A
:10011000D9FF1200C1DF00C0E6FF85DF41E901C061
:10012000E6FF81DF41E9310EE66E7DDF41E905C082
:10013000E6FF79DF41E908C0E6FF75DF41E906C067
:10014000E6FF71DF41E907C0E6FF6DDF41E909C065
:10015000E6FF69DF41E90AC0E6FF65DF41E90BC060
:10016000E6FF61DF41E955EF00F09398939A939C85
:10017000818CD0DF5A0EE66E020EE66E9FDF42E9FA
:02018000F9D7AD
:0E018200060EF66E000EF76E000EF86E00010F
:100190000900F550126F0900F550136F03E1126763
:1001A00001D03DD00900F5500D6F0900F5500E6FDC
:1001B0000900F5500F6F09000900F550E96E0900BC
:1001C000F550EA6E090009000900F550106F0900AA
:1001D000F550116F09000900F6CF14F0F7CF15F0B4
:1001E000F8CF16F00DC0F6FF0EC0F7FF0FC0F8FFF6
:1001F0000001105302E1115307E00900F550EE6EC3
:100200001007F8E21107F9D714C0F6FF15C0F7FF81
:1002100016C0F8FF00011207000E135BBFD71200D3
:10022000C00EF36E00EE00F00E0E01D81200EA6070
:1002300002D0EE6AFCD7F350E9601200EE6AFCD7F8
:100240001DEE00F02DEE00F0F86AC1EC00F035EC88
:0A02500001F0B5EC00F0FBD712003E
:06025A0045434534353335
:0A026000342069732066756E2100DA
:02026A00120080
:04026C007C004030A2
:090270003114566D250C0601C085
:00000001FF
